{
    "contractName": "CertificateRegistry",
    "abi": [
        {
            "inputs": [],
            "stateMutability": "nonpayable",
            "type": "constructor"
        },
        {
            "anonymous": false,
            "inputs": [
                {
                    "indexed": true,
                    "internalType": "bytes32",
                    "name": "hash",
                    "type": "bytes32"
                },
                {
                    "indexed": false,
                    "internalType": "string",
                    "name": "studentID",
                    "type": "string"
                }
            ],
            "name": "CertificateIssued",
            "type": "event"
        },
        {
            "anonymous": false,
            "inputs": [
                {
                    "indexed": true,
                    "internalType": "bytes32",
                    "name": "hash",
                    "type": "bytes32"
                },
                {
                    "indexed": false,
                    "internalType": "string",
                    "name": "studentID",
                    "type": "string"
                }
            ],
            "name": "CertificateRevoked",
            "type": "event"
        },
        {
            "anonymous": false,
            "inputs": [
                {
                    "indexed": true,
                    "internalType": "address",
                    "name": "issuer",
                    "type": "address"
                }
            ],
            "name": "IssuerAdded",
            "type": "event"
        },
        {
            "anonymous": false,
            "inputs": [
                {
                    "indexed": true,
                    "internalType": "address",
                    "name": "issuer",
                    "type": "address"
                }
            ],
            "name": "IssuerRemoved",
            "type": "event"
        },
        {
            "inputs": [
                {
                    "internalType": "address",
                    "name": "_issuer",
                    "type": "address"
                }
            ],
            "name": "addIssuer",
            "outputs": [],
            "stateMutability": "nonpayable",
            "type": "function"
        },
        {
            "inputs": [
                {
                    "internalType": "address",
                    "name": "",
                    "type": "address"
                }
            ],
            "name": "authorizedIssuers",
            "outputs": [
                {
                    "internalType": "bool",
                    "name": "",
                    "type": "bool"
                }
            ],
            "stateMutability": "view",
            "type": "function"
        },
        {
            "inputs": [
                {
                    "internalType": "bytes32",
                    "name": "",
                    "type": "bytes32"
                }
            ],
            "name": "certificates",
            "outputs": [
                {
                    "internalType": "bytes32",
                    "name": "hash",
                    "type": "bytes32"
                },
                {
                    "internalType": "bool",
                    "name": "isRevoked",
                    "type": "bool"
                }
            ],
            "stateMutability": "view",
            "type": "function"
        },
        {
            "inputs": [
                {
                    "internalType": "string",
                    "name": "name",
                    "type": "string"
                },
                {
                    "internalType": "string",
                    "name": "course",
                    "type": "string"
                },
                {
                    "internalType": "string",
                    "name": "studentID",
                    "type": "string"
                },
                {
                    "internalType": "string",
                    "name": "teacherName",
                    "type": "string"
                },
                {
                    "internalType": "string",
                    "name": "grade",
                    "type": "string"
                },
                {
                    "internalType": "uint256",
                    "name": "marks",
                    "type": "uint256"
                },
                {
                    "internalType": "string",
                    "name": "issueDate",
                    "type": "string"
                }
            ],
            "name": "issueCertificate",
            "outputs": [],
            "stateMutability": "nonpayable",
            "type": "function"
        },
        {
            "inputs": [],
            "name": "owner",
            "outputs": [
                {
                    "internalType": "address",
                    "name": "",
                    "type": "address"
                }
            ],
            "stateMutability": "view",
            "type": "function"
        },
        {
            "inputs": [
                {
                    "internalType": "address",
                    "name": "_issuer",
                    "type": "address"
                }
            ],
            "name": "removeIssuer",
            "outputs": [],
            "stateMutability": "nonpayable",
            "type": "function"
        },
        {
            "inputs": [
                {
                    "internalType": "string",
                    "name": "name",
                    "type": "string"
                },
                {
                    "internalType": "string",
                    "name": "course",
                    "type": "string"
                },
                {
                    "internalType": "string",
                    "name": "studentID",
                    "type": "string"
                },
                {
                    "internalType": "string",
                    "name": "teacherName",
                    "type": "string"
                },
                {
                    "internalType": "string",
                    "name": "grade",
                    "type": "string"
                },
                {
                    "internalType": "uint256",
                    "name": "marks",
                    "type": "uint256"
                },
                {
                    "internalType": "string",
                    "name": "issueDate",
                    "type": "string"
                }
            ],
            "name": "revokeCertificate",
            "outputs": [],
            "stateMutability": "nonpayable",
            "type": "function"
        },
        {
            "inputs": [
                {
                    "internalType": "string",
                    "name": "name",
                    "type": "string"
                },
                {
                    "internalType": "string",
                    "name": "course",
                    "type": "string"
                },
                {
                    "internalType": "string",
                    "name": "studentID",
                    "type": "string"
                },
                {
                    "internalType": "string",
                    "name": "teacherName",
                    "type": "string"
                },
                {
                    "internalType": "string",
                    "name": "grade",
                    "type": "string"
                },
                {
                    "internalType": "uint256",
                    "name": "marks",
                    "type": "uint256"
                },
                {
                    "internalType": "string",
                    "name": "issueDate",
                    "type": "string"
                }
            ],
            "name": "verifyCertificate",
            "outputs": [
                {
                    "internalType": "string",
                    "name": "",
                    "type": "string"
                }
            ],
            "stateMutability": "view",
            "type": "function"
        }
    ],
    "bytecode": "608080604052346026575f80546001600160a01b03191633179055610836908161002b8239f35b5f80fdfe60806040526004361015610011575f80fd5b5f3560e01c806320694db01461041457806347bc7093146103a0578063678167d41461028a5780637311335314610145578063742f06881461010d5780638da5cb5b146100e65780638fc5bb9a146100b65763f731fa0f14610071575f80fd5b346100b25760203660031901126100b2576004356001600160a01b038116908190036100b2575f526001602052602060ff60405f2054166040519015158152f35b5f80fd5b346100b2576100e26100d66100ca36610503565b95949094939193610709565b604051918291826105d5565b0390f35b346100b2575f3660031901126100b2575f546040516001600160a01b039091168152602090f35b346100b25760203660031901126100b2576004355f5260026020526040805f2060ff6001825492015416825191825215156020820152f35b346100b25761019861018a61015936610503565b9184989594969793335f52600160205261017960ff60405f20541661065a565b604051978896602088019a8b6106a6565b03601f19810183528261048b565b51902090815f52600260205260405f20546102455760405190604082019082821067ffffffffffffffff831117610231577faeb7e439524e4d35b43e6ccb53c42a2fe0361d2e96be31ebc6e2c3cb72aadb949261022c92604052848152600160208201915f8352865f52600260205260405f2090518155019051151560ff80198354169116179055604051918291826105d5565b0390a2005b634e487b7160e01b5f52604160045260245ffd5b60405162461bcd60e51b815260206004820152601b60248201527f436572746966696361746520616c7265616479206578697374732e00000000006044820152606490fd5b346100b25761029e61018a61015936610503565b51902090815f52600260205260405f20541561035b57815f52600260205260ff600160405f200154166103165761022c7f6a67f6498e0156955d3a658d7124084b43548b0eaa26ee2105ccf42059efe11291835f526002602052600160405f2001600160ff19825416179055604051918291826105d5565b60405162461bcd60e51b815260206004820152601c60248201527f436572746966696361746520616c7265616479207265766f6b65642e000000006044820152606490fd5b60405162461bcd60e51b815260206004820152601b60248201527f436572746966696361746520646f6573206e6f742065786973742e00000000006044820152606490fd5b346100b25760203660031901126100b2576004356001600160a01b038116908190036100b2576103da60018060a01b035f541633146105ff565b805f52600160205260405f2060ff1981541690557faf66545c919a3be306ee446d8f42a9558b5b022620df880517bc9593ec0f2d525f80a2005b346100b25760203660031901126100b2576004356001600160a01b038116908190036100b25761044e60018060a01b035f541633146105ff565b805f52600160205260405f20600160ff198254161790557f05e7c881d716bee8cb7ed92293133ba156704252439e5c502c277448f04e20c25f80a2005b90601f8019910116810190811067ffffffffffffffff82111761023157604052565b81601f820112156100b25780359067ffffffffffffffff821161023157604051926104e2601f8401601f19166020018561048b565b828452602083830101116100b257815f926020809301838601378301015290565b60e06003198201126100b25760043567ffffffffffffffff81116100b2578161052e916004016104ad565b9160243567ffffffffffffffff81116100b2578261054e916004016104ad565b9160443567ffffffffffffffff81116100b2578161056e916004016104ad565b9160643567ffffffffffffffff81116100b2578261058e916004016104ad565b9160843567ffffffffffffffff81116100b257816105ae916004016104ad565b9160a4359160c4359067ffffffffffffffff82116100b2576105d2916004016104ad565b90565b602060409281835280519182918282860152018484015e5f828201840152601f01601f1916010190565b1561060657565b60405162461bcd60e51b815260206004820152602660248201527f4f6e6c7920746865206f776e65722063616e20706572666f726d20746869732060448201526530b1ba34b7b760d11b6064820152608490fd5b1561066157565b60405162461bcd60e51b815260206004820152601860248201527f4e6f7420616e20617574686f72697a65642069737375657200000000000000006044820152606490fd5b9360208098959481809998958180988197805192839101825e01905f8252805192839101825e01905f8252805192839101825e01905f8252805192839101825e01905f8252805192839101825e019182528051928391018483015e01015f815290565b959092946107279461018a9396604051978896602088019a8b6106a6565b519020805f52600260205260405f2054155f1461077a575060405161074d60408261048b565b601b81527f436572746966696361746520646f6573206e6f742065786973742e0000000000602082015290565b5f52600260205260ff600160405f200154165f146107cd576040516107a060408261048b565b601781527f4365727469666963617465206973207265766f6b65642e000000000000000000602082015290565b6040516107db60408261048b565b601581527421b2b93a34b334b1b0ba329034b9903b30b634b21760591b60208201529056fea26469706673582212207a81ea5820fd85e5103fef3037b83ab21bc5de552c1af04dd996f4becf9fb27f64736f6c634300081c0033",
    "sourcePath": "c:/Users/uzair/OneDrive/Documents/Latrobe/CSE5BCC/Assignment 3/d-app/certificate.sol",
    "compiler": {
        "name": "solc",
        "version": "0.8.28+commit.7893614a"
    },
    "functionHashes": {
        "addIssuer(address)": "20694db0",
        "authorizedIssuers(address)": "f731fa0f",
        "certificates(bytes32)": "742f0688",
        "issueCertificate(string,string,string,string,string,uint256,string)": "73113353",
        "owner()": "8da5cb5b",
        "removeIssuer(address)": "47bc7093",
        "revokeCertificate(string,string,string,string,string,uint256,string)": "678167d4",
        "verifyCertificate(string,string,string,string,string,uint256,string)": "8fc5bb9a"
    },
    "gasEstimates": {
        "creation": {
            "codeDepositCost": "420400",
            "executionCost": "24696",
            "totalCost": "445096"
        },
        "external": {
            "addIssuer(address)": "27757",
            "authorizedIssuers(address)": "2522",
            "certificates(bytes32)": "4540",
            "issueCertificate(string,string,string,string,string,uint256,string)": "infinite",
            "owner()": "2381",
            "removeIssuer(address)": "27773",
            "revokeCertificate(string,string,string,string,string,uint256,string)": "infinite",
            "verifyCertificate(string,string,string,string,string,uint256,string)": "infinite"
        }
    }
}