{
	"certificate.sol": {
		"CertificateRegistry": {
			"abi": [
				{
					"inputs": [],
					"stateMutability": "nonpayable",
					"type": "constructor"
				},
				{
					"anonymous": false,
					"inputs": [
						{
							"indexed": true,
							"internalType": "bytes32",
							"name": "hash",
							"type": "bytes32"
						},
						{
							"indexed": false,
							"internalType": "string",
							"name": "studentID",
							"type": "string"
						}
					],
					"name": "CertificateIssued",
					"type": "event"
				},
				{
					"anonymous": false,
					"inputs": [
						{
							"indexed": true,
							"internalType": "bytes32",
							"name": "hash",
							"type": "bytes32"
						},
						{
							"indexed": false,
							"internalType": "string",
							"name": "studentID",
							"type": "string"
						}
					],
					"name": "CertificateRevoked",
					"type": "event"
				},
				{
					"anonymous": false,
					"inputs": [
						{
							"indexed": true,
							"internalType": "address",
							"name": "issuer",
							"type": "address"
						}
					],
					"name": "IssuerAdded",
					"type": "event"
				},
				{
					"anonymous": false,
					"inputs": [
						{
							"indexed": true,
							"internalType": "address",
							"name": "issuer",
							"type": "address"
						}
					],
					"name": "IssuerRemoved",
					"type": "event"
				},
				{
					"inputs": [
						{
							"internalType": "address",
							"name": "_issuer",
							"type": "address"
						}
					],
					"name": "addIssuer",
					"outputs": [],
					"stateMutability": "nonpayable",
					"type": "function"
				},
				{
					"inputs": [
						{
							"internalType": "address",
							"name": "",
							"type": "address"
						}
					],
					"name": "authorizedIssuers",
					"outputs": [
						{
							"internalType": "bool",
							"name": "",
							"type": "bool"
						}
					],
					"stateMutability": "view",
					"type": "function"
				},
				{
					"inputs": [
						{
							"internalType": "bytes32",
							"name": "",
							"type": "bytes32"
						}
					],
					"name": "certificates",
					"outputs": [
						{
							"internalType": "bytes32",
							"name": "hash",
							"type": "bytes32"
						},
						{
							"internalType": "bool",
							"name": "isRevoked",
							"type": "bool"
						}
					],
					"stateMutability": "view",
					"type": "function"
				},
				{
					"inputs": [
						{
							"internalType": "string",
							"name": "name",
							"type": "string"
						},
						{
							"internalType": "string",
							"name": "course",
							"type": "string"
						},
						{
							"internalType": "string",
							"name": "studentID",
							"type": "string"
						},
						{
							"internalType": "string",
							"name": "teacherName",
							"type": "string"
						},
						{
							"internalType": "string",
							"name": "grade",
							"type": "string"
						},
						{
							"internalType": "uint256",
							"name": "marks",
							"type": "uint256"
						},
						{
							"internalType": "string",
							"name": "issueDate",
							"type": "string"
						}
					],
					"name": "issueCertificate",
					"outputs": [],
					"stateMutability": "nonpayable",
					"type": "function"
				},
				{
					"inputs": [],
					"name": "owner",
					"outputs": [
						{
							"internalType": "address",
							"name": "",
							"type": "address"
						}
					],
					"stateMutability": "view",
					"type": "function"
				},
				{
					"inputs": [
						{
							"internalType": "address",
							"name": "_issuer",
							"type": "address"
						}
					],
					"name": "removeIssuer",
					"outputs": [],
					"stateMutability": "nonpayable",
					"type": "function"
				},
				{
					"inputs": [
						{
							"internalType": "string",
							"name": "name",
							"type": "string"
						},
						{
							"internalType": "string",
							"name": "course",
							"type": "string"
						},
						{
							"internalType": "string",
							"name": "studentID",
							"type": "string"
						},
						{
							"internalType": "string",
							"name": "teacherName",
							"type": "string"
						},
						{
							"internalType": "string",
							"name": "grade",
							"type": "string"
						},
						{
							"internalType": "uint256",
							"name": "marks",
							"type": "uint256"
						},
						{
							"internalType": "string",
							"name": "issueDate",
							"type": "string"
						}
					],
					"name": "revokeCertificate",
					"outputs": [],
					"stateMutability": "nonpayable",
					"type": "function"
				},
				{
					"inputs": [
						{
							"internalType": "string",
							"name": "name",
							"type": "string"
						},
						{
							"internalType": "string",
							"name": "course",
							"type": "string"
						},
						{
							"internalType": "string",
							"name": "studentID",
							"type": "string"
						},
						{
							"internalType": "string",
							"name": "teacherName",
							"type": "string"
						},
						{
							"internalType": "string",
							"name": "grade",
							"type": "string"
						},
						{
							"internalType": "uint256",
							"name": "marks",
							"type": "uint256"
						},
						{
							"internalType": "string",
							"name": "issueDate",
							"type": "string"
						}
					],
					"name": "verifyCertificate",
					"outputs": [
						{
							"internalType": "string",
							"name": "",
							"type": "string"
						}
					],
					"stateMutability": "view",
					"type": "function"
				}
			],
			"devdoc": {
				"kind": "dev",
				"methods": {},
				"version": 1
			},
			"evm": {
				"assembly": "    /* \"certificate.sol\":60:3761  contract CertificateRegistry {... */\n  mstore(0x40, 0x80)\n    /* \"certificate.sol\":878:971  constructor() {... */\n  callvalue\n  dup1\n  iszero\n  tag_1\n  jumpi\n  0x00\n  dup1\n  revert\ntag_1:\n  pop\n    /* \"certificate.sol\":911:921  msg.sender */\n  caller\n    /* \"certificate.sol\":903:908  owner */\n  0x00\n  dup1\n    /* \"certificate.sol\":903:921  owner = msg.sender */\n  0x0100\n  exp\n  dup2\n  sload\n  dup2\n  0xffffffffffffffffffffffffffffffffffffffff\n  mul\n  not\n  and\n  swap1\n  dup4\n  0xffffffffffffffffffffffffffffffffffffffff\n  and\n  mul\n  or\n  swap1\n  sstore\n  pop\n    /* \"certificate.sol\":60:3761  contract CertificateRegistry {... */\n  dataSize(sub_0)\n  dup1\n  dataOffset(sub_0)\n  0x00\n  codecopy\n  0x00\n  return\nstop\n\nsub_0: assembly {\n        /* \"certificate.sol\":60:3761  contract CertificateRegistry {... */\n      mstore(0x40, 0x80)\n      callvalue\n      dup1\n      iszero\n      tag_1\n      jumpi\n      0x00\n      dup1\n      revert\n    tag_1:\n      pop\n      jumpi(tag_2, lt(calldatasize, 0x04))\n      shr(0xe0, calldataload(0x00))\n      dup1\n      0x742f0688\n      gt\n      tag_11\n      jumpi\n      dup1\n      0x742f0688\n      eq\n      tag_7\n      jumpi\n      dup1\n      0x8da5cb5b\n      eq\n      tag_8\n      jumpi\n      dup1\n      0x8fc5bb9a\n      eq\n      tag_9\n      jumpi\n      dup1\n      0xf731fa0f\n      eq\n      tag_10\n      jumpi\n      jump(tag_2)\n    tag_11:\n      dup1\n      0x20694db0\n      eq\n      tag_3\n      jumpi\n      dup1\n      0x47bc7093\n      eq\n      tag_4\n      jumpi\n      dup1\n      0x678167d4\n      eq\n      tag_5\n      jumpi\n      dup1\n      0x73113353\n      eq\n      tag_6\n      jumpi\n    tag_2:\n      0x00\n      dup1\n      revert\n        /* \"certificate.sol\":1041:1182  function addIssuer(address _issuer) public onlyOwner {... */\n    tag_3:\n      tag_12\n      0x04\n      dup1\n      calldatasize\n      sub\n      dup2\n      add\n      swap1\n      tag_13\n      swap2\n      swap1\n      tag_14\n      jump\t// in\n    tag_13:\n      tag_15\n      jump\t// in\n    tag_12:\n      stop\n        /* \"certificate.sol\":1252:1399  function removeIssuer(address _issuer) public onlyOwner {... */\n    tag_4:\n      tag_16\n      0x04\n      dup1\n      calldatasize\n      sub\n      dup2\n      add\n      swap1\n      tag_17\n      swap2\n      swap1\n      tag_14\n      jump\t// in\n    tag_17:\n      tag_18\n      jump\t// in\n    tag_16:\n      stop\n        /* \"certificate.sol\":2247:2953  function revokeCertificate(... */\n    tag_5:\n      tag_19\n      0x04\n      dup1\n      calldatasize\n      sub\n      dup2\n      add\n      swap1\n      tag_20\n      swap2\n      swap1\n      tag_21\n      jump\t// in\n    tag_20:\n      tag_22\n      jump\t// in\n    tag_19:\n      stop\n        /* \"certificate.sol\":1481:2164  function issueCertificate(... */\n    tag_6:\n      tag_23\n      0x04\n      dup1\n      calldatasize\n      sub\n      dup2\n      add\n      swap1\n      tag_24\n      swap2\n      swap1\n      tag_21\n      jump\t// in\n    tag_24:\n      tag_25\n      jump\t// in\n    tag_23:\n      stop\n        /* \"certificate.sol\":310:361  mapping(bytes32 => Certificate) public certificates */\n    tag_7:\n      tag_26\n      0x04\n      dup1\n      calldatasize\n      sub\n      dup2\n      add\n      swap1\n      tag_27\n      swap2\n      swap1\n      tag_28\n      jump\t// in\n    tag_27:\n      tag_29\n      jump\t// in\n    tag_26:\n      mload(0x40)\n      tag_30\n      swap3\n      swap2\n      swap1\n      tag_31\n      jump\t// in\n    tag_30:\n      mload(0x40)\n      dup1\n      swap2\n      sub\n      swap1\n      return\n        /* \"certificate.sol\":179:199  address public owner */\n    tag_8:\n      tag_32\n      tag_33\n      jump\t// in\n    tag_32:\n      mload(0x40)\n      tag_34\n      swap2\n      swap1\n      tag_35\n      jump\t// in\n    tag_34:\n      mload(0x40)\n      dup1\n      swap2\n      sub\n      swap1\n      return\n        /* \"certificate.sol\":3042:3758  function verifyCertificate(... */\n    tag_9:\n      tag_36\n      0x04\n      dup1\n      calldatasize\n      sub\n      dup2\n      add\n      swap1\n      tag_37\n      swap2\n      swap1\n      tag_21\n      jump\t// in\n    tag_37:\n      tag_38\n      jump\t// in\n    tag_36:\n      mload(0x40)\n      tag_39\n      swap2\n      swap1\n      tag_40\n      jump\t// in\n    tag_39:\n      mload(0x40)\n      dup1\n      swap2\n      sub\n      swap1\n      return\n        /* \"certificate.sol\":206:255  mapping(address => bool) public authorizedIssuers */\n    tag_10:\n      tag_41\n      0x04\n      dup1\n      calldatasize\n      sub\n      dup2\n      add\n      swap1\n      tag_42\n      swap2\n      swap1\n      tag_14\n      jump\t// in\n    tag_42:\n      tag_43\n      jump\t// in\n    tag_41:\n      mload(0x40)\n      tag_44\n      swap2\n      swap1\n      tag_45\n      jump\t// in\n    tag_44:\n      mload(0x40)\n      dup1\n      swap2\n      sub\n      swap1\n      return\n        /* \"certificate.sol\":1041:1182  function addIssuer(address _issuer) public onlyOwner {... */\n    tag_15:\n        /* \"certificate.sol\":665:670  owner */\n      0x00\n      dup1\n      sload\n      swap1\n      0x0100\n      exp\n      swap1\n      div\n      0xffffffffffffffffffffffffffffffffffffffff\n      and\n        /* \"certificate.sol\":651:670  msg.sender == owner */\n      0xffffffffffffffffffffffffffffffffffffffff\n      and\n        /* \"certificate.sol\":651:661  msg.sender */\n      caller\n        /* \"certificate.sol\":651:670  msg.sender == owner */\n      0xffffffffffffffffffffffffffffffffffffffff\n      and\n      eq\n        /* \"certificate.sol\":643:713  require(msg.sender == owner, \"Only the owner can perform this action\") */\n      tag_47\n      jumpi\n      mload(0x40)\n      0x08c379a000000000000000000000000000000000000000000000000000000000\n      dup2\n      mstore\n      0x04\n      add\n      tag_48\n      swap1\n      tag_49\n      jump\t// in\n    tag_48:\n      mload(0x40)\n      dup1\n      swap2\n      sub\n      swap1\n      revert\n    tag_47:\n        /* \"certificate.sol\":1134:1138  true */\n      0x01\n        /* \"certificate.sol\":1105:1122  authorizedIssuers */\n      dup1\n        /* \"certificate.sol\":1105:1131  authorizedIssuers[_issuer] */\n      0x00\n        /* \"certificate.sol\":1123:1130  _issuer */\n      dup4\n        /* \"certificate.sol\":1105:1131  authorizedIssuers[_issuer] */\n      0xffffffffffffffffffffffffffffffffffffffff\n      and\n      0xffffffffffffffffffffffffffffffffffffffff\n      and\n      dup2\n      mstore\n      0x20\n      add\n      swap1\n      dup2\n      mstore\n      0x20\n      add\n      0x00\n      keccak256\n      0x00\n        /* \"certificate.sol\":1105:1138  authorizedIssuers[_issuer] = true */\n      0x0100\n      exp\n      dup2\n      sload\n      dup2\n      0xff\n      mul\n      not\n      and\n      swap1\n      dup4\n      iszero\n      iszero\n      mul\n      or\n      swap1\n      sstore\n      pop\n        /* \"certificate.sol\":1166:1173  _issuer */\n      dup1\n        /* \"certificate.sol\":1154:1174  IssuerAdded(_issuer) */\n      0xffffffffffffffffffffffffffffffffffffffff\n      and\n      0x05e7c881d716bee8cb7ed92293133ba156704252439e5c502c277448f04e20c2\n      mload(0x40)\n      mload(0x40)\n      dup1\n      swap2\n      sub\n      swap1\n      log2\n        /* \"certificate.sol\":1041:1182  function addIssuer(address _issuer) public onlyOwner {... */\n      pop\n      jump\t// out\n        /* \"certificate.sol\":1252:1399  function removeIssuer(address _issuer) public onlyOwner {... */\n    tag_18:\n        /* \"certificate.sol\":665:670  owner */\n      0x00\n      dup1\n      sload\n      swap1\n      0x0100\n      exp\n      swap1\n      div\n      0xffffffffffffffffffffffffffffffffffffffff\n      and\n        /* \"certificate.sol\":651:670  msg.sender == owner */\n      0xffffffffffffffffffffffffffffffffffffffff\n      and\n        /* \"certificate.sol\":651:661  msg.sender */\n      caller\n        /* \"certificate.sol\":651:670  msg.sender == owner */\n      0xffffffffffffffffffffffffffffffffffffffff\n      and\n      eq\n        /* \"certificate.sol\":643:713  require(msg.sender == owner, \"Only the owner can perform this action\") */\n      tag_52\n      jumpi\n      mload(0x40)\n      0x08c379a000000000000000000000000000000000000000000000000000000000\n      dup2\n      mstore\n      0x04\n      add\n      tag_53\n      swap1\n      tag_49\n      jump\t// in\n    tag_53:\n      mload(0x40)\n      dup1\n      swap2\n      sub\n      swap1\n      revert\n    tag_52:\n        /* \"certificate.sol\":1348:1353  false */\n      0x00\n        /* \"certificate.sol\":1319:1336  authorizedIssuers */\n      0x01\n        /* \"certificate.sol\":1319:1345  authorizedIssuers[_issuer] */\n      0x00\n        /* \"certificate.sol\":1337:1344  _issuer */\n      dup4\n        /* \"certificate.sol\":1319:1345  authorizedIssuers[_issuer] */\n      0xffffffffffffffffffffffffffffffffffffffff\n      and\n      0xffffffffffffffffffffffffffffffffffffffff\n      and\n      dup2\n      mstore\n      0x20\n      add\n      swap1\n      dup2\n      mstore\n      0x20\n      add\n      0x00\n      keccak256\n      0x00\n        /* \"certificate.sol\":1319:1353  authorizedIssuers[_issuer] = false */\n      0x0100\n      exp\n      dup2\n      sload\n      dup2\n      0xff\n      mul\n      not\n      and\n      swap1\n      dup4\n      iszero\n      iszero\n      mul\n      or\n      swap1\n      sstore\n      pop\n        /* \"certificate.sol\":1383:1390  _issuer */\n      dup1\n        /* \"certificate.sol\":1369:1391  IssuerRemoved(_issuer) */\n      0xffffffffffffffffffffffffffffffffffffffff\n      and\n      0xaf66545c919a3be306ee446d8f42a9558b5b022620df880517bc9593ec0f2d52\n      mload(0x40)\n      mload(0x40)\n      dup1\n      swap2\n      sub\n      swap1\n      log2\n        /* \"certificate.sol\":1252:1399  function removeIssuer(address _issuer) public onlyOwner {... */\n      pop\n      jump\t// out\n        /* \"certificate.sol\":2247:2953  function revokeCertificate(... */\n    tag_22:\n        /* \"certificate.sol\":792:809  authorizedIssuers */\n      0x01\n        /* \"certificate.sol\":792:821  authorizedIssuers[msg.sender] */\n      0x00\n        /* \"certificate.sol\":810:820  msg.sender */\n      caller\n        /* \"certificate.sol\":792:821  authorizedIssuers[msg.sender] */\n      0xffffffffffffffffffffffffffffffffffffffff\n      and\n      0xffffffffffffffffffffffffffffffffffffffff\n      and\n      dup2\n      mstore\n      0x20\n      add\n      swap1\n      dup2\n      mstore\n      0x20\n      add\n      0x00\n      keccak256\n      0x00\n      swap1\n      sload\n      swap1\n      0x0100\n      exp\n      swap1\n      div\n      0xff\n      and\n        /* \"certificate.sol\":784:850  require(authorizedIssuers[msg.sender], \"Not an authorized issuer\") */\n      tag_56\n      jumpi\n      mload(0x40)\n      0x08c379a000000000000000000000000000000000000000000000000000000000\n      dup2\n      mstore\n      0x04\n      add\n      tag_57\n      swap1\n      tag_58\n      jump\t// in\n    tag_57:\n      mload(0x40)\n      dup1\n      swap2\n      sub\n      swap1\n      revert\n    tag_56:\n        /* \"certificate.sol\":2535:2551  bytes32 certHash */\n      0x00\n        /* \"certificate.sol\":2595:2599  name */\n      dup8\n        /* \"certificate.sol\":2601:2607  course */\n      dup8\n        /* \"certificate.sol\":2609:2618  studentID */\n      dup8\n        /* \"certificate.sol\":2620:2631  teacherName */\n      dup8\n        /* \"certificate.sol\":2633:2638  grade */\n      dup8\n        /* \"certificate.sol\":2640:2645  marks */\n      dup8\n        /* \"certificate.sol\":2647:2656  issueDate */\n      dup8\n        /* \"certificate.sol\":2578:2657  abi.encodePacked(name, course, studentID, teacherName, grade, marks, issueDate) */\n      add(0x20, mload(0x40))\n      tag_60\n      swap8\n      swap7\n      swap6\n      swap5\n      swap4\n      swap3\n      swap2\n      swap1\n      tag_61\n      jump\t// in\n    tag_60:\n      mload(0x40)\n      0x20\n      dup2\n      dup4\n      sub\n      sub\n      dup2\n      mstore\n      swap1\n      0x40\n      mstore\n        /* \"certificate.sol\":2554:2668  keccak256(... */\n      dup1\n      mload\n      swap1\n      0x20\n      add\n      keccak256\n        /* \"certificate.sol\":2535:2668  bytes32 certHash = keccak256(... */\n      swap1\n      pop\n        /* \"certificate.sol\":2720:2721  0 */\n      0x00\n        /* \"certificate.sol\":2689:2721  certificates[certHash].hash != 0 */\n      dup1\n      shl\n        /* \"certificate.sol\":2689:2701  certificates */\n      0x02\n        /* \"certificate.sol\":2689:2711  certificates[certHash] */\n      0x00\n        /* \"certificate.sol\":2702:2710  certHash */\n      dup4\n        /* \"certificate.sol\":2689:2711  certificates[certHash] */\n      dup2\n      mstore\n      0x20\n      add\n      swap1\n      dup2\n      mstore\n      0x20\n      add\n      0x00\n      keccak256\n        /* \"certificate.sol\":2689:2716  certificates[certHash].hash */\n      0x00\n      add\n      sload\n        /* \"certificate.sol\":2689:2721  certificates[certHash].hash != 0 */\n      sub\n        /* \"certificate.sol\":2681:2753  require(certificates[certHash].hash != 0, \"Certificate does not exist.\") */\n      tag_62\n      jumpi\n      mload(0x40)\n      0x08c379a000000000000000000000000000000000000000000000000000000000\n      dup2\n      mstore\n      0x04\n      add\n      tag_63\n      swap1\n      tag_64\n      jump\t// in\n    tag_63:\n      mload(0x40)\n      dup1\n      swap2\n      sub\n      swap1\n      revert\n    tag_62:\n        /* \"certificate.sol\":2773:2785  certificates */\n      0x02\n        /* \"certificate.sol\":2773:2795  certificates[certHash] */\n      0x00\n        /* \"certificate.sol\":2786:2794  certHash */\n      dup3\n        /* \"certificate.sol\":2773:2795  certificates[certHash] */\n      dup2\n      mstore\n      0x20\n      add\n      swap1\n      dup2\n      mstore\n      0x20\n      add\n      0x00\n      keccak256\n        /* \"certificate.sol\":2773:2805  certificates[certHash].isRevoked */\n      0x01\n      add\n      0x00\n      swap1\n      sload\n      swap1\n      0x0100\n      exp\n      swap1\n      div\n      0xff\n      and\n        /* \"certificate.sol\":2772:2805  !certificates[certHash].isRevoked */\n      iszero\n        /* \"certificate.sol\":2764:2838  require(!certificates[certHash].isRevoked, \"Certificate already revoked.\") */\n      tag_65\n      jumpi\n      mload(0x40)\n      0x08c379a000000000000000000000000000000000000000000000000000000000\n      dup2\n      mstore\n      0x04\n      add\n      tag_66\n      swap1\n      tag_67\n      jump\t// in\n    tag_66:\n      mload(0x40)\n      dup1\n      swap2\n      sub\n      swap1\n      revert\n    tag_65:\n        /* \"certificate.sol\":2886:2890  true */\n      0x01\n        /* \"certificate.sol\":2851:2863  certificates */\n      0x02\n        /* \"certificate.sol\":2851:2873  certificates[certHash] */\n      0x00\n        /* \"certificate.sol\":2864:2872  certHash */\n      dup4\n        /* \"certificate.sol\":2851:2873  certificates[certHash] */\n      dup2\n      mstore\n      0x20\n      add\n      swap1\n      dup2\n      mstore\n      0x20\n      add\n      0x00\n      keccak256\n        /* \"certificate.sol\":2851:2883  certificates[certHash].isRevoked */\n      0x01\n      add\n      0x00\n        /* \"certificate.sol\":2851:2890  certificates[certHash].isRevoked = true */\n      0x0100\n      exp\n      dup2\n      sload\n      dup2\n      0xff\n      mul\n      not\n      and\n      swap1\n      dup4\n      iszero\n      iszero\n      mul\n      or\n      swap1\n      sstore\n      pop\n        /* \"certificate.sol\":2925:2933  certHash */\n      dup1\n        /* \"certificate.sol\":2906:2945  CertificateRevoked(certHash, studentID) */\n      0x6a67f6498e0156955d3a658d7124084b43548b0eaa26ee2105ccf42059efe112\n        /* \"certificate.sol\":2935:2944  studentID */\n      dup8\n        /* \"certificate.sol\":2906:2945  CertificateRevoked(certHash, studentID) */\n      mload(0x40)\n      tag_68\n      swap2\n      swap1\n      tag_40\n      jump\t// in\n    tag_68:\n      mload(0x40)\n      dup1\n      swap2\n      sub\n      swap1\n      log2\n        /* \"certificate.sol\":2524:2953  {... */\n      pop\n        /* \"certificate.sol\":2247:2953  function revokeCertificate(... */\n      pop\n      pop\n      pop\n      pop\n      pop\n      pop\n      pop\n      jump\t// out\n        /* \"certificate.sol\":1481:2164  function issueCertificate(... */\n    tag_25:\n        /* \"certificate.sol\":792:809  authorizedIssuers */\n      0x01\n        /* \"certificate.sol\":792:821  authorizedIssuers[msg.sender] */\n      0x00\n        /* \"certificate.sol\":810:820  msg.sender */\n      caller\n        /* \"certificate.sol\":792:821  authorizedIssuers[msg.sender] */\n      0xffffffffffffffffffffffffffffffffffffffff\n      and\n      0xffffffffffffffffffffffffffffffffffffffff\n      and\n      dup2\n      mstore\n      0x20\n      add\n      swap1\n      dup2\n      mstore\n      0x20\n      add\n      0x00\n      keccak256\n      0x00\n      swap1\n      sload\n      swap1\n      0x0100\n      exp\n      swap1\n      div\n      0xff\n      and\n        /* \"certificate.sol\":784:850  require(authorizedIssuers[msg.sender], \"Not an authorized issuer\") */\n      tag_70\n      jumpi\n      mload(0x40)\n      0x08c379a000000000000000000000000000000000000000000000000000000000\n      dup2\n      mstore\n      0x04\n      add\n      tag_71\n      swap1\n      tag_58\n      jump\t// in\n    tag_71:\n      mload(0x40)\n      dup1\n      swap2\n      sub\n      swap1\n      revert\n    tag_70:\n        /* \"certificate.sol\":1768:1784  bytes32 certHash */\n      0x00\n        /* \"certificate.sol\":1828:1832  name */\n      dup8\n        /* \"certificate.sol\":1834:1840  course */\n      dup8\n        /* \"certificate.sol\":1842:1851  studentID */\n      dup8\n        /* \"certificate.sol\":1853:1864  teacherName */\n      dup8\n        /* \"certificate.sol\":1866:1871  grade */\n      dup8\n        /* \"certificate.sol\":1873:1878  marks */\n      dup8\n        /* \"certificate.sol\":1880:1889  issueDate */\n      dup8\n        /* \"certificate.sol\":1811:1890  abi.encodePacked(name, course, studentID, teacherName, grade, marks, issueDate) */\n      add(0x20, mload(0x40))\n      tag_73\n      swap8\n      swap7\n      swap6\n      swap5\n      swap4\n      swap3\n      swap2\n      swap1\n      tag_61\n      jump\t// in\n    tag_73:\n      mload(0x40)\n      0x20\n      dup2\n      dup4\n      sub\n      sub\n      dup2\n      mstore\n      swap1\n      0x40\n      mstore\n        /* \"certificate.sol\":1787:1901  keccak256(... */\n      dup1\n      mload\n      swap1\n      0x20\n      add\n      keccak256\n        /* \"certificate.sol\":1768:1901  bytes32 certHash = keccak256(... */\n      swap1\n      pop\n        /* \"certificate.sol\":1953:1954  0 */\n      0x00\n        /* \"certificate.sol\":1922:1954  certificates[certHash].hash == 0 */\n      dup1\n      shl\n        /* \"certificate.sol\":1922:1934  certificates */\n      0x02\n        /* \"certificate.sol\":1922:1944  certificates[certHash] */\n      0x00\n        /* \"certificate.sol\":1935:1943  certHash */\n      dup4\n        /* \"certificate.sol\":1922:1944  certificates[certHash] */\n      dup2\n      mstore\n      0x20\n      add\n      swap1\n      dup2\n      mstore\n      0x20\n      add\n      0x00\n      keccak256\n        /* \"certificate.sol\":1922:1949  certificates[certHash].hash */\n      0x00\n      add\n      sload\n        /* \"certificate.sol\":1922:1954  certificates[certHash].hash == 0 */\n      eq\n        /* \"certificate.sol\":1914:1986  require(certificates[certHash].hash == 0, \"Certificate already exists.\") */\n      tag_74\n      jumpi\n      mload(0x40)\n      0x08c379a000000000000000000000000000000000000000000000000000000000\n      dup2\n      mstore\n      0x04\n      add\n      tag_75\n      swap1\n      tag_76\n      jump\t// in\n    tag_75:\n      mload(0x40)\n      dup1\n      swap2\n      sub\n      swap1\n      revert\n    tag_74:\n        /* \"certificate.sol\":2032:2060  Certificate(certHash, false) */\n      mload(0x40)\n      dup1\n      0x40\n      add\n      0x40\n      mstore\n      dup1\n        /* \"certificate.sol\":2044:2052  certHash */\n      dup3\n        /* \"certificate.sol\":2032:2060  Certificate(certHash, false) */\n      dup2\n      mstore\n      0x20\n      add\n        /* \"certificate.sol\":2054:2059  false */\n      0x00\n        /* \"certificate.sol\":2032:2060  Certificate(certHash, false) */\n      iszero\n      iszero\n      dup2\n      mstore\n      pop\n        /* \"certificate.sol\":2007:2019  certificates */\n      0x02\n        /* \"certificate.sol\":2007:2029  certificates[certHash] */\n      0x00\n        /* \"certificate.sol\":2020:2028  certHash */\n      dup4\n        /* \"certificate.sol\":2007:2029  certificates[certHash] */\n      dup2\n      mstore\n      0x20\n      add\n      swap1\n      dup2\n      mstore\n      0x20\n      add\n      0x00\n      keccak256\n        /* \"certificate.sol\":2007:2060  certificates[certHash] = Certificate(certHash, false) */\n      0x00\n      dup3\n      add\n      mload\n      dup2\n      0x00\n      add\n      sstore\n      0x20\n      dup3\n      add\n      mload\n      dup2\n      0x01\n      add\n      exp(0x0100, 0x00)\n      dup2\n      sload\n      dup2\n      0xff\n      mul\n      not\n      and\n      swap1\n      dup4\n      iszero\n      iszero\n      mul\n      or\n      swap1\n      sstore\n      pop\n      swap1\n      pop\n      pop\n        /* \"certificate.sol\":2136:2144  certHash */\n      dup1\n        /* \"certificate.sol\":2118:2156  CertificateIssued(certHash, studentID) */\n      0xaeb7e439524e4d35b43e6ccb53c42a2fe0361d2e96be31ebc6e2c3cb72aadb94\n        /* \"certificate.sol\":2146:2155  studentID */\n      dup8\n        /* \"certificate.sol\":2118:2156  CertificateIssued(certHash, studentID) */\n      mload(0x40)\n      tag_77\n      swap2\n      swap1\n      tag_40\n      jump\t// in\n    tag_77:\n      mload(0x40)\n      dup1\n      swap2\n      sub\n      swap1\n      log2\n        /* \"certificate.sol\":1757:2164  {... */\n      pop\n        /* \"certificate.sol\":1481:2164  function issueCertificate(... */\n      pop\n      pop\n      pop\n      pop\n      pop\n      pop\n      pop\n      jump\t// out\n        /* \"certificate.sol\":310:361  mapping(bytes32 => Certificate) public certificates */\n    tag_29:\n      mstore(0x20, 0x02)\n      dup1\n      0x00\n      mstore\n      keccak256(0x00, 0x40)\n      0x00\n      swap2\n      pop\n      swap1\n      pop\n      dup1\n      0x00\n      add\n      sload\n      swap1\n      dup1\n      0x01\n      add\n      0x00\n      swap1\n      sload\n      swap1\n      0x0100\n      exp\n      swap1\n      div\n      0xff\n      and\n      swap1\n      pop\n      dup3\n      jump\t// out\n        /* \"certificate.sol\":179:199  address public owner */\n    tag_33:\n      0x00\n      dup1\n      sload\n      swap1\n      0x0100\n      exp\n      swap1\n      div\n      0xffffffffffffffffffffffffffffffffffffffff\n      and\n      dup2\n      jump\t// out\n        /* \"certificate.sol\":3042:3758  function verifyCertificate(... */\n    tag_38:\n        /* \"certificate.sol\":3312:3325  string memory */\n      0x60\n        /* \"certificate.sol\":3338:3354  bytes32 certHash */\n      0x00\n        /* \"certificate.sol\":3398:3402  name */\n      dup9\n        /* \"certificate.sol\":3404:3410  course */\n      dup9\n        /* \"certificate.sol\":3412:3421  studentID */\n      dup9\n        /* \"certificate.sol\":3423:3434  teacherName */\n      dup9\n        /* \"certificate.sol\":3436:3441  grade */\n      dup9\n        /* \"certificate.sol\":3443:3448  marks */\n      dup9\n        /* \"certificate.sol\":3450:3459  issueDate */\n      dup9\n        /* \"certificate.sol\":3381:3460  abi.encodePacked(name, course, studentID, teacherName, grade, marks, issueDate) */\n      add(0x20, mload(0x40))\n      tag_79\n      swap8\n      swap7\n      swap6\n      swap5\n      swap4\n      swap3\n      swap2\n      swap1\n      tag_61\n      jump\t// in\n    tag_79:\n      mload(0x40)\n      0x20\n      dup2\n      dup4\n      sub\n      sub\n      dup2\n      mstore\n      swap1\n      0x40\n      mstore\n        /* \"certificate.sol\":3357:3471  keccak256(... */\n      dup1\n      mload\n      swap1\n      0x20\n      add\n      keccak256\n        /* \"certificate.sol\":3338:3471  bytes32 certHash = keccak256(... */\n      swap1\n      pop\n        /* \"certificate.sol\":3519:3520  0 */\n      0x00\n        /* \"certificate.sol\":3488:3520  certificates[certHash].hash == 0 */\n      dup1\n      shl\n        /* \"certificate.sol\":3488:3500  certificates */\n      0x02\n        /* \"certificate.sol\":3488:3510  certificates[certHash] */\n      0x00\n        /* \"certificate.sol\":3501:3509  certHash */\n      dup4\n        /* \"certificate.sol\":3488:3510  certificates[certHash] */\n      dup2\n      mstore\n      0x20\n      add\n      swap1\n      dup2\n      mstore\n      0x20\n      add\n      0x00\n      keccak256\n        /* \"certificate.sol\":3488:3515  certificates[certHash].hash */\n      0x00\n      add\n      sload\n        /* \"certificate.sol\":3488:3520  certificates[certHash].hash == 0 */\n      sub\n        /* \"certificate.sol\":3484:3751  if (certificates[certHash].hash == 0) {... */\n      tag_80\n      jumpi\n        /* \"certificate.sol\":3537:3573  return \"Certificate does not exist.\" */\n      mload(0x40)\n      dup1\n      0x40\n      add\n      0x40\n      mstore\n      dup1\n      0x1b\n      dup2\n      mstore\n      0x20\n      add\n      0x436572746966696361746520646f6573206e6f742065786973742e0000000000\n      dup2\n      mstore\n      pop\n      swap2\n      pop\n      pop\n      jump(tag_78)\n        /* \"certificate.sol\":3484:3751  if (certificates[certHash].hash == 0) {... */\n    tag_80:\n        /* \"certificate.sol\":3595:3607  certificates */\n      0x02\n        /* \"certificate.sol\":3595:3617  certificates[certHash] */\n      0x00\n        /* \"certificate.sol\":3608:3616  certHash */\n      dup3\n        /* \"certificate.sol\":3595:3617  certificates[certHash] */\n      dup2\n      mstore\n      0x20\n      add\n      swap1\n      dup2\n      mstore\n      0x20\n      add\n      0x00\n      keccak256\n        /* \"certificate.sol\":3595:3627  certificates[certHash].isRevoked */\n      0x01\n      add\n      0x00\n      swap1\n      sload\n      swap1\n      0x0100\n      exp\n      swap1\n      div\n      0xff\n      and\n        /* \"certificate.sol\":3591:3751  if (certificates[certHash].isRevoked) {... */\n      iszero\n      tag_82\n      jumpi\n        /* \"certificate.sol\":3644:3676  return \"Certificate is revoked.\" */\n      mload(0x40)\n      dup1\n      0x40\n      add\n      0x40\n      mstore\n      dup1\n      0x17\n      dup2\n      mstore\n      0x20\n      add\n      0x4365727469666963617465206973207265766f6b65642e000000000000000000\n      dup2\n      mstore\n      pop\n      swap2\n      pop\n      pop\n      jump(tag_78)\n        /* \"certificate.sol\":3591:3751  if (certificates[certHash].isRevoked) {... */\n    tag_82:\n        /* \"certificate.sol\":3709:3739  return \"Certificate is valid.\" */\n      mload(0x40)\n      dup1\n      0x40\n      add\n      0x40\n      mstore\n      dup1\n      0x15\n      dup2\n      mstore\n      0x20\n      add\n      0x43657274696669636174652069732076616c69642e0000000000000000000000\n      dup2\n      mstore\n      pop\n      swap2\n      pop\n      pop\n        /* \"certificate.sol\":3042:3758  function verifyCertificate(... */\n    tag_78:\n      swap8\n      swap7\n      pop\n      pop\n      pop\n      pop\n      pop\n      pop\n      pop\n      jump\t// out\n        /* \"certificate.sol\":206:255  mapping(address => bool) public authorizedIssuers */\n    tag_43:\n      mstore(0x20, 0x01)\n      dup1\n      0x00\n      mstore\n      keccak256(0x00, 0x40)\n      0x00\n      swap2\n      pop\n      sload\n      swap1\n      0x0100\n      exp\n      swap1\n      div\n      0xff\n      and\n      dup2\n      jump\t// out\n        /* \"#utility.yul\":7:82   */\n    tag_84:\n        /* \"#utility.yul\":40:46   */\n      0x00\n        /* \"#utility.yul\":73:75   */\n      0x40\n        /* \"#utility.yul\":67:76   */\n      mload\n        /* \"#utility.yul\":57:76   */\n      swap1\n      pop\n        /* \"#utility.yul\":7:82   */\n      swap1\n      jump\t// out\n        /* \"#utility.yul\":88:205   */\n    tag_85:\n        /* \"#utility.yul\":197:198   */\n      0x00\n        /* \"#utility.yul\":194:195   */\n      dup1\n        /* \"#utility.yul\":187:199   */\n      revert\n        /* \"#utility.yul\":211:328   */\n    tag_86:\n        /* \"#utility.yul\":320:321   */\n      0x00\n        /* \"#utility.yul\":317:318   */\n      dup1\n        /* \"#utility.yul\":310:322   */\n      revert\n        /* \"#utility.yul\":334:460   */\n    tag_87:\n        /* \"#utility.yul\":371:378   */\n      0x00\n        /* \"#utility.yul\":411:453   */\n      0xffffffffffffffffffffffffffffffffffffffff\n        /* \"#utility.yul\":404:409   */\n      dup3\n        /* \"#utility.yul\":400:454   */\n      and\n        /* \"#utility.yul\":389:454   */\n      swap1\n      pop\n        /* \"#utility.yul\":334:460   */\n      swap2\n      swap1\n      pop\n      jump\t// out\n        /* \"#utility.yul\":466:562   */\n    tag_88:\n        /* \"#utility.yul\":503:510   */\n      0x00\n        /* \"#utility.yul\":532:556   */\n      tag_135\n        /* \"#utility.yul\":550:555   */\n      dup3\n        /* \"#utility.yul\":532:556   */\n      tag_87\n      jump\t// in\n    tag_135:\n        /* \"#utility.yul\":521:556   */\n      swap1\n      pop\n        /* \"#utility.yul\":466:562   */\n      swap2\n      swap1\n      pop\n      jump\t// out\n        /* \"#utility.yul\":568:690   */\n    tag_89:\n        /* \"#utility.yul\":641:665   */\n      tag_137\n        /* \"#utility.yul\":659:664   */\n      dup2\n        /* \"#utility.yul\":641:665   */\n      tag_88\n      jump\t// in\n    tag_137:\n        /* \"#utility.yul\":634:639   */\n      dup2\n        /* \"#utility.yul\":631:666   */\n      eq\n        /* \"#utility.yul\":621:684   */\n      tag_138\n      jumpi\n        /* \"#utility.yul\":680:681   */\n      0x00\n        /* \"#utility.yul\":677:678   */\n      dup1\n        /* \"#utility.yul\":670:682   */\n      revert\n        /* \"#utility.yul\":621:684   */\n    tag_138:\n        /* \"#utility.yul\":568:690   */\n      pop\n      jump\t// out\n        /* \"#utility.yul\":696:835   */\n    tag_90:\n        /* \"#utility.yul\":742:747   */\n      0x00\n        /* \"#utility.yul\":780:786   */\n      dup2\n        /* \"#utility.yul\":767:787   */\n      calldataload\n        /* \"#utility.yul\":758:787   */\n      swap1\n      pop\n        /* \"#utility.yul\":796:829   */\n      tag_140\n        /* \"#utility.yul\":823:828   */\n      dup2\n        /* \"#utility.yul\":796:829   */\n      tag_89\n      jump\t// in\n    tag_140:\n        /* \"#utility.yul\":696:835   */\n      swap3\n      swap2\n      pop\n      pop\n      jump\t// out\n        /* \"#utility.yul\":841:1170   */\n    tag_14:\n        /* \"#utility.yul\":900:906   */\n      0x00\n        /* \"#utility.yul\":949:951   */\n      0x20\n        /* \"#utility.yul\":937:946   */\n      dup3\n        /* \"#utility.yul\":928:935   */\n      dup5\n        /* \"#utility.yul\":924:947   */\n      sub\n        /* \"#utility.yul\":920:952   */\n      slt\n        /* \"#utility.yul\":917:1036   */\n      iszero\n      tag_142\n      jumpi\n        /* \"#utility.yul\":955:1034   */\n      tag_143\n      tag_85\n      jump\t// in\n    tag_143:\n        /* \"#utility.yul\":917:1036   */\n    tag_142:\n        /* \"#utility.yul\":1075:1076   */\n      0x00\n        /* \"#utility.yul\":1100:1153   */\n      tag_144\n        /* \"#utility.yul\":1145:1152   */\n      dup5\n        /* \"#utility.yul\":1136:1142   */\n      dup3\n        /* \"#utility.yul\":1125:1134   */\n      dup6\n        /* \"#utility.yul\":1121:1143   */\n      add\n        /* \"#utility.yul\":1100:1153   */\n      tag_90\n      jump\t// in\n    tag_144:\n        /* \"#utility.yul\":1090:1153   */\n      swap2\n      pop\n        /* \"#utility.yul\":1046:1163   */\n      pop\n        /* \"#utility.yul\":841:1170   */\n      swap3\n      swap2\n      pop\n      pop\n      jump\t// out\n        /* \"#utility.yul\":1176:1293   */\n    tag_91:\n        /* \"#utility.yul\":1285:1286   */\n      0x00\n        /* \"#utility.yul\":1282:1283   */\n      dup1\n        /* \"#utility.yul\":1275:1287   */\n      revert\n        /* \"#utility.yul\":1299:1416   */\n    tag_92:\n        /* \"#utility.yul\":1408:1409   */\n      0x00\n        /* \"#utility.yul\":1405:1406   */\n      dup1\n        /* \"#utility.yul\":1398:1410   */\n      revert\n        /* \"#utility.yul\":1422:1524   */\n    tag_93:\n        /* \"#utility.yul\":1463:1469   */\n      0x00\n        /* \"#utility.yul\":1514:1516   */\n      0x1f\n        /* \"#utility.yul\":1510:1517   */\n      not\n        /* \"#utility.yul\":1505:1507   */\n      0x1f\n        /* \"#utility.yul\":1498:1503   */\n      dup4\n        /* \"#utility.yul\":1494:1508   */\n      add\n        /* \"#utility.yul\":1490:1518   */\n      and\n        /* \"#utility.yul\":1480:1518   */\n      swap1\n      pop\n        /* \"#utility.yul\":1422:1524   */\n      swap2\n      swap1\n      pop\n      jump\t// out\n        /* \"#utility.yul\":1530:1710   */\n    tag_94:\n        /* \"#utility.yul\":1578:1655   */\n      0x4e487b7100000000000000000000000000000000000000000000000000000000\n        /* \"#utility.yul\":1575:1576   */\n      0x00\n        /* \"#utility.yul\":1568:1656   */\n      mstore\n        /* \"#utility.yul\":1675:1679   */\n      0x41\n        /* \"#utility.yul\":1672:1673   */\n      0x04\n        /* \"#utility.yul\":1665:1680   */\n      mstore\n        /* \"#utility.yul\":1699:1703   */\n      0x24\n        /* \"#utility.yul\":1696:1697   */\n      0x00\n        /* \"#utility.yul\":1689:1704   */\n      revert\n        /* \"#utility.yul\":1716:1997   */\n    tag_95:\n        /* \"#utility.yul\":1799:1826   */\n      tag_150\n        /* \"#utility.yul\":1821:1825   */\n      dup3\n        /* \"#utility.yul\":1799:1826   */\n      tag_93\n      jump\t// in\n    tag_150:\n        /* \"#utility.yul\":1791:1797   */\n      dup2\n        /* \"#utility.yul\":1787:1827   */\n      add\n        /* \"#utility.yul\":1929:1935   */\n      dup2\n        /* \"#utility.yul\":1917:1927   */\n      dup2\n        /* \"#utility.yul\":1914:1936   */\n      lt\n        /* \"#utility.yul\":1893:1911   */\n      0xffffffffffffffff\n        /* \"#utility.yul\":1881:1891   */\n      dup3\n        /* \"#utility.yul\":1878:1912   */\n      gt\n        /* \"#utility.yul\":1875:1937   */\n      or\n        /* \"#utility.yul\":1872:1960   */\n      iszero\n      tag_151\n      jumpi\n        /* \"#utility.yul\":1940:1958   */\n      tag_152\n      tag_94\n      jump\t// in\n    tag_152:\n        /* \"#utility.yul\":1872:1960   */\n    tag_151:\n        /* \"#utility.yul\":1980:1990   */\n      dup1\n        /* \"#utility.yul\":1976:1978   */\n      0x40\n        /* \"#utility.yul\":1969:1991   */\n      mstore\n        /* \"#utility.yul\":1759:1997   */\n      pop\n        /* \"#utility.yul\":1716:1997   */\n      pop\n      pop\n      jump\t// out\n        /* \"#utility.yul\":2003:2132   */\n    tag_96:\n        /* \"#utility.yul\":2037:2043   */\n      0x00\n        /* \"#utility.yul\":2064:2084   */\n      tag_154\n      tag_84\n      jump\t// in\n    tag_154:\n        /* \"#utility.yul\":2054:2084   */\n      swap1\n      pop\n        /* \"#utility.yul\":2093:2126   */\n      tag_155\n        /* \"#utility.yul\":2121:2125   */\n      dup3\n        /* \"#utility.yul\":2113:2119   */\n      dup3\n        /* \"#utility.yul\":2093:2126   */\n      tag_95\n      jump\t// in\n    tag_155:\n        /* \"#utility.yul\":2003:2132   */\n      swap2\n      swap1\n      pop\n      jump\t// out\n        /* \"#utility.yul\":2138:2446   */\n    tag_97:\n        /* \"#utility.yul\":2200:2204   */\n      0x00\n        /* \"#utility.yul\":2290:2308   */\n      0xffffffffffffffff\n        /* \"#utility.yul\":2282:2288   */\n      dup3\n        /* \"#utility.yul\":2279:2309   */\n      gt\n        /* \"#utility.yul\":2276:2332   */\n      iszero\n      tag_157\n      jumpi\n        /* \"#utility.yul\":2312:2330   */\n      tag_158\n      tag_94\n      jump\t// in\n    tag_158:\n        /* \"#utility.yul\":2276:2332   */\n    tag_157:\n        /* \"#utility.yul\":2350:2379   */\n      tag_159\n        /* \"#utility.yul\":2372:2378   */\n      dup3\n        /* \"#utility.yul\":2350:2379   */\n      tag_93\n      jump\t// in\n    tag_159:\n        /* \"#utility.yul\":2342:2379   */\n      swap1\n      pop\n        /* \"#utility.yul\":2434:2438   */\n      0x20\n        /* \"#utility.yul\":2428:2432   */\n      dup2\n        /* \"#utility.yul\":2424:2439   */\n      add\n        /* \"#utility.yul\":2416:2439   */\n      swap1\n      pop\n        /* \"#utility.yul\":2138:2446   */\n      swap2\n      swap1\n      pop\n      jump\t// out\n        /* \"#utility.yul\":2452:2600   */\n    tag_98:\n        /* \"#utility.yul\":2550:2556   */\n      dup3\n        /* \"#utility.yul\":2545:2548   */\n      dup2\n        /* \"#utility.yul\":2540:2543   */\n      dup4\n        /* \"#utility.yul\":2527:2557   */\n      calldatacopy\n        /* \"#utility.yul\":2591:2592   */\n      0x00\n        /* \"#utility.yul\":2582:2588   */\n      dup4\n        /* \"#utility.yul\":2577:2580   */\n      dup4\n        /* \"#utility.yul\":2573:2589   */\n      add\n        /* \"#utility.yul\":2566:2593   */\n      mstore\n        /* \"#utility.yul\":2452:2600   */\n      pop\n      pop\n      pop\n      jump\t// out\n        /* \"#utility.yul\":2606:3031   */\n    tag_99:\n        /* \"#utility.yul\":2684:2689   */\n      0x00\n        /* \"#utility.yul\":2709:2775   */\n      tag_162\n        /* \"#utility.yul\":2725:2774   */\n      tag_163\n        /* \"#utility.yul\":2767:2773   */\n      dup5\n        /* \"#utility.yul\":2725:2774   */\n      tag_97\n      jump\t// in\n    tag_163:\n        /* \"#utility.yul\":2709:2775   */\n      tag_96\n      jump\t// in\n    tag_162:\n        /* \"#utility.yul\":2700:2775   */\n      swap1\n      pop\n        /* \"#utility.yul\":2798:2804   */\n      dup3\n        /* \"#utility.yul\":2791:2796   */\n      dup2\n        /* \"#utility.yul\":2784:2805   */\n      mstore\n        /* \"#utility.yul\":2836:2840   */\n      0x20\n        /* \"#utility.yul\":2829:2834   */\n      dup2\n        /* \"#utility.yul\":2825:2841   */\n      add\n        /* \"#utility.yul\":2874:2877   */\n      dup5\n        /* \"#utility.yul\":2865:2871   */\n      dup5\n        /* \"#utility.yul\":2860:2863   */\n      dup5\n        /* \"#utility.yul\":2856:2872   */\n      add\n        /* \"#utility.yul\":2853:2878   */\n      gt\n        /* \"#utility.yul\":2850:2962   */\n      iszero\n      tag_164\n      jumpi\n        /* \"#utility.yul\":2881:2960   */\n      tag_165\n      tag_92\n      jump\t// in\n    tag_165:\n        /* \"#utility.yul\":2850:2962   */\n    tag_164:\n        /* \"#utility.yul\":2971:3025   */\n      tag_166\n        /* \"#utility.yul\":3018:3024   */\n      dup5\n        /* \"#utility.yul\":3013:3016   */\n      dup3\n        /* \"#utility.yul\":3008:3011   */\n      dup6\n        /* \"#utility.yul\":2971:3025   */\n      tag_98\n      jump\t// in\n    tag_166:\n        /* \"#utility.yul\":2690:3031   */\n      pop\n        /* \"#utility.yul\":2606:3031   */\n      swap4\n      swap3\n      pop\n      pop\n      pop\n      jump\t// out\n        /* \"#utility.yul\":3051:3391   */\n    tag_100:\n        /* \"#utility.yul\":3107:3112   */\n      0x00\n        /* \"#utility.yul\":3156:3159   */\n      dup3\n        /* \"#utility.yul\":3149:3153   */\n      0x1f\n        /* \"#utility.yul\":3141:3147   */\n      dup4\n        /* \"#utility.yul\":3137:3154   */\n      add\n        /* \"#utility.yul\":3133:3160   */\n      slt\n        /* \"#utility.yul\":3123:3245   */\n      tag_168\n      jumpi\n        /* \"#utility.yul\":3164:3243   */\n      tag_169\n      tag_91\n      jump\t// in\n    tag_169:\n        /* \"#utility.yul\":3123:3245   */\n    tag_168:\n        /* \"#utility.yul\":3281:3287   */\n      dup2\n        /* \"#utility.yul\":3268:3288   */\n      calldataload\n        /* \"#utility.yul\":3306:3385   */\n      tag_170\n        /* \"#utility.yul\":3381:3384   */\n      dup5\n        /* \"#utility.yul\":3373:3379   */\n      dup3\n        /* \"#utility.yul\":3366:3370   */\n      0x20\n        /* \"#utility.yul\":3358:3364   */\n      dup7\n        /* \"#utility.yul\":3354:3371   */\n      add\n        /* \"#utility.yul\":3306:3385   */\n      tag_99\n      jump\t// in\n    tag_170:\n        /* \"#utility.yul\":3297:3385   */\n      swap2\n      pop\n        /* \"#utility.yul\":3113:3391   */\n      pop\n        /* \"#utility.yul\":3051:3391   */\n      swap3\n      swap2\n      pop\n      pop\n      jump\t// out\n        /* \"#utility.yul\":3397:3474   */\n    tag_101:\n        /* \"#utility.yul\":3434:3441   */\n      0x00\n        /* \"#utility.yul\":3463:3468   */\n      dup2\n        /* \"#utility.yul\":3452:3468   */\n      swap1\n      pop\n        /* \"#utility.yul\":3397:3474   */\n      swap2\n      swap1\n      pop\n      jump\t// out\n        /* \"#utility.yul\":3480:3602   */\n    tag_102:\n        /* \"#utility.yul\":3553:3577   */\n      tag_173\n        /* \"#utility.yul\":3571:3576   */\n      dup2\n        /* \"#utility.yul\":3553:3577   */\n      tag_101\n      jump\t// in\n    tag_173:\n        /* \"#utility.yul\":3546:3551   */\n      dup2\n        /* \"#utility.yul\":3543:3578   */\n      eq\n        /* \"#utility.yul\":3533:3596   */\n      tag_174\n      jumpi\n        /* \"#utility.yul\":3592:3593   */\n      0x00\n        /* \"#utility.yul\":3589:3590   */\n      dup1\n        /* \"#utility.yul\":3582:3594   */\n      revert\n        /* \"#utility.yul\":3533:3596   */\n    tag_174:\n        /* \"#utility.yul\":3480:3602   */\n      pop\n      jump\t// out\n        /* \"#utility.yul\":3608:3747   */\n    tag_103:\n        /* \"#utility.yul\":3654:3659   */\n      0x00\n        /* \"#utility.yul\":3692:3698   */\n      dup2\n        /* \"#utility.yul\":3679:3699   */\n      calldataload\n        /* \"#utility.yul\":3670:3699   */\n      swap1\n      pop\n        /* \"#utility.yul\":3708:3741   */\n      tag_176\n        /* \"#utility.yul\":3735:3740   */\n      dup2\n        /* \"#utility.yul\":3708:3741   */\n      tag_102\n      jump\t// in\n    tag_176:\n        /* \"#utility.yul\":3608:3747   */\n      swap3\n      swap2\n      pop\n      pop\n      jump\t// out\n        /* \"#utility.yul\":3753:6036   */\n    tag_21:\n        /* \"#utility.yul\":3926:3932   */\n      0x00\n        /* \"#utility.yul\":3934:3940   */\n      dup1\n        /* \"#utility.yul\":3942:3948   */\n      0x00\n        /* \"#utility.yul\":3950:3956   */\n      dup1\n        /* \"#utility.yul\":3958:3964   */\n      0x00\n        /* \"#utility.yul\":3966:3972   */\n      dup1\n        /* \"#utility.yul\":3974:3980   */\n      0x00\n        /* \"#utility.yul\":4023:4026   */\n      0xe0\n        /* \"#utility.yul\":4011:4020   */\n      dup9\n        /* \"#utility.yul\":4002:4009   */\n      dup11\n        /* \"#utility.yul\":3998:4021   */\n      sub\n        /* \"#utility.yul\":3994:4027   */\n      slt\n        /* \"#utility.yul\":3991:4111   */\n      iszero\n      tag_178\n      jumpi\n        /* \"#utility.yul\":4030:4109   */\n      tag_179\n      tag_85\n      jump\t// in\n    tag_179:\n        /* \"#utility.yul\":3991:4111   */\n    tag_178:\n        /* \"#utility.yul\":4178:4179   */\n      0x00\n        /* \"#utility.yul\":4167:4176   */\n      dup9\n        /* \"#utility.yul\":4163:4180   */\n      add\n        /* \"#utility.yul\":4150:4181   */\n      calldataload\n        /* \"#utility.yul\":4208:4226   */\n      0xffffffffffffffff\n        /* \"#utility.yul\":4200:4206   */\n      dup2\n        /* \"#utility.yul\":4197:4227   */\n      gt\n        /* \"#utility.yul\":4194:4311   */\n      iszero\n      tag_180\n      jumpi\n        /* \"#utility.yul\":4230:4309   */\n      tag_181\n      tag_86\n      jump\t// in\n    tag_181:\n        /* \"#utility.yul\":4194:4311   */\n    tag_180:\n        /* \"#utility.yul\":4335:4398   */\n      tag_182\n        /* \"#utility.yul\":4390:4397   */\n      dup11\n        /* \"#utility.yul\":4381:4387   */\n      dup3\n        /* \"#utility.yul\":4370:4379   */\n      dup12\n        /* \"#utility.yul\":4366:4388   */\n      add\n        /* \"#utility.yul\":4335:4398   */\n      tag_100\n      jump\t// in\n    tag_182:\n        /* \"#utility.yul\":4325:4398   */\n      swap8\n      pop\n        /* \"#utility.yul\":4121:4408   */\n      pop\n        /* \"#utility.yul\":4475:4477   */\n      0x20\n        /* \"#utility.yul\":4464:4473   */\n      dup9\n        /* \"#utility.yul\":4460:4478   */\n      add\n        /* \"#utility.yul\":4447:4479   */\n      calldataload\n        /* \"#utility.yul\":4506:4524   */\n      0xffffffffffffffff\n        /* \"#utility.yul\":4498:4504   */\n      dup2\n        /* \"#utility.yul\":4495:4525   */\n      gt\n        /* \"#utility.yul\":4492:4609   */\n      iszero\n      tag_183\n      jumpi\n        /* \"#utility.yul\":4528:4607   */\n      tag_184\n      tag_86\n      jump\t// in\n    tag_184:\n        /* \"#utility.yul\":4492:4609   */\n    tag_183:\n        /* \"#utility.yul\":4633:4696   */\n      tag_185\n        /* \"#utility.yul\":4688:4695   */\n      dup11\n        /* \"#utility.yul\":4679:4685   */\n      dup3\n        /* \"#utility.yul\":4668:4677   */\n      dup12\n        /* \"#utility.yul\":4664:4686   */\n      add\n        /* \"#utility.yul\":4633:4696   */\n      tag_100\n      jump\t// in\n    tag_185:\n        /* \"#utility.yul\":4623:4696   */\n      swap7\n      pop\n        /* \"#utility.yul\":4418:4706   */\n      pop\n        /* \"#utility.yul\":4773:4775   */\n      0x40\n        /* \"#utility.yul\":4762:4771   */\n      dup9\n        /* \"#utility.yul\":4758:4776   */\n      add\n        /* \"#utility.yul\":4745:4777   */\n      calldataload\n        /* \"#utility.yul\":4804:4822   */\n      0xffffffffffffffff\n        /* \"#utility.yul\":4796:4802   */\n      dup2\n        /* \"#utility.yul\":4793:4823   */\n      gt\n        /* \"#utility.yul\":4790:4907   */\n      iszero\n      tag_186\n      jumpi\n        /* \"#utility.yul\":4826:4905   */\n      tag_187\n      tag_86\n      jump\t// in\n    tag_187:\n        /* \"#utility.yul\":4790:4907   */\n    tag_186:\n        /* \"#utility.yul\":4931:4994   */\n      tag_188\n        /* \"#utility.yul\":4986:4993   */\n      dup11\n        /* \"#utility.yul\":4977:4983   */\n      dup3\n        /* \"#utility.yul\":4966:4975   */\n      dup12\n        /* \"#utility.yul\":4962:4984   */\n      add\n        /* \"#utility.yul\":4931:4994   */\n      tag_100\n      jump\t// in\n    tag_188:\n        /* \"#utility.yul\":4921:4994   */\n      swap6\n      pop\n        /* \"#utility.yul\":4716:5004   */\n      pop\n        /* \"#utility.yul\":5071:5073   */\n      0x60\n        /* \"#utility.yul\":5060:5069   */\n      dup9\n        /* \"#utility.yul\":5056:5074   */\n      add\n        /* \"#utility.yul\":5043:5075   */\n      calldataload\n        /* \"#utility.yul\":5102:5120   */\n      0xffffffffffffffff\n        /* \"#utility.yul\":5094:5100   */\n      dup2\n        /* \"#utility.yul\":5091:5121   */\n      gt\n        /* \"#utility.yul\":5088:5205   */\n      iszero\n      tag_189\n      jumpi\n        /* \"#utility.yul\":5124:5203   */\n      tag_190\n      tag_86\n      jump\t// in\n    tag_190:\n        /* \"#utility.yul\":5088:5205   */\n    tag_189:\n        /* \"#utility.yul\":5229:5292   */\n      tag_191\n        /* \"#utility.yul\":5284:5291   */\n      dup11\n        /* \"#utility.yul\":5275:5281   */\n      dup3\n        /* \"#utility.yul\":5264:5273   */\n      dup12\n        /* \"#utility.yul\":5260:5282   */\n      add\n        /* \"#utility.yul\":5229:5292   */\n      tag_100\n      jump\t// in\n    tag_191:\n        /* \"#utility.yul\":5219:5292   */\n      swap5\n      pop\n        /* \"#utility.yul\":5014:5302   */\n      pop\n        /* \"#utility.yul\":5369:5372   */\n      0x80\n        /* \"#utility.yul\":5358:5367   */\n      dup9\n        /* \"#utility.yul\":5354:5373   */\n      add\n        /* \"#utility.yul\":5341:5374   */\n      calldataload\n        /* \"#utility.yul\":5401:5419   */\n      0xffffffffffffffff\n        /* \"#utility.yul\":5393:5399   */\n      dup2\n        /* \"#utility.yul\":5390:5420   */\n      gt\n        /* \"#utility.yul\":5387:5504   */\n      iszero\n      tag_192\n      jumpi\n        /* \"#utility.yul\":5423:5502   */\n      tag_193\n      tag_86\n      jump\t// in\n    tag_193:\n        /* \"#utility.yul\":5387:5504   */\n    tag_192:\n        /* \"#utility.yul\":5528:5591   */\n      tag_194\n        /* \"#utility.yul\":5583:5590   */\n      dup11\n        /* \"#utility.yul\":5574:5580   */\n      dup3\n        /* \"#utility.yul\":5563:5572   */\n      dup12\n        /* \"#utility.yul\":5559:5581   */\n      add\n        /* \"#utility.yul\":5528:5591   */\n      tag_100\n      jump\t// in\n    tag_194:\n        /* \"#utility.yul\":5518:5591   */\n      swap4\n      pop\n        /* \"#utility.yul\":5312:5601   */\n      pop\n        /* \"#utility.yul\":5640:5643   */\n      0xa0\n        /* \"#utility.yul\":5667:5720   */\n      tag_195\n        /* \"#utility.yul\":5712:5719   */\n      dup11\n        /* \"#utility.yul\":5703:5709   */\n      dup3\n        /* \"#utility.yul\":5692:5701   */\n      dup12\n        /* \"#utility.yul\":5688:5710   */\n      add\n        /* \"#utility.yul\":5667:5720   */\n      tag_103\n      jump\t// in\n    tag_195:\n        /* \"#utility.yul\":5657:5720   */\n      swap3\n      pop\n        /* \"#utility.yul\":5611:5730   */\n      pop\n        /* \"#utility.yul\":5797:5800   */\n      0xc0\n        /* \"#utility.yul\":5786:5795   */\n      dup9\n        /* \"#utility.yul\":5782:5801   */\n      add\n        /* \"#utility.yul\":5769:5802   */\n      calldataload\n        /* \"#utility.yul\":5829:5847   */\n      0xffffffffffffffff\n        /* \"#utility.yul\":5821:5827   */\n      dup2\n        /* \"#utility.yul\":5818:5848   */\n      gt\n        /* \"#utility.yul\":5815:5932   */\n      iszero\n      tag_196\n      jumpi\n        /* \"#utility.yul\":5851:5930   */\n      tag_197\n      tag_86\n      jump\t// in\n    tag_197:\n        /* \"#utility.yul\":5815:5932   */\n    tag_196:\n        /* \"#utility.yul\":5956:6019   */\n      tag_198\n        /* \"#utility.yul\":6011:6018   */\n      dup11\n        /* \"#utility.yul\":6002:6008   */\n      dup3\n        /* \"#utility.yul\":5991:6000   */\n      dup12\n        /* \"#utility.yul\":5987:6009   */\n      add\n        /* \"#utility.yul\":5956:6019   */\n      tag_100\n      jump\t// in\n    tag_198:\n        /* \"#utility.yul\":5946:6019   */\n      swap2\n      pop\n        /* \"#utility.yul\":5740:6029   */\n      pop\n        /* \"#utility.yul\":3753:6036   */\n      swap3\n      swap6\n      swap9\n      swap2\n      swap5\n      swap8\n      pop\n      swap3\n      swap6\n      pop\n      jump\t// out\n        /* \"#utility.yul\":6042:6119   */\n    tag_104:\n        /* \"#utility.yul\":6079:6086   */\n      0x00\n        /* \"#utility.yul\":6108:6113   */\n      dup2\n        /* \"#utility.yul\":6097:6113   */\n      swap1\n      pop\n        /* \"#utility.yul\":6042:6119   */\n      swap2\n      swap1\n      pop\n      jump\t// out\n        /* \"#utility.yul\":6125:6247   */\n    tag_105:\n        /* \"#utility.yul\":6198:6222   */\n      tag_201\n        /* \"#utility.yul\":6216:6221   */\n      dup2\n        /* \"#utility.yul\":6198:6222   */\n      tag_104\n      jump\t// in\n    tag_201:\n        /* \"#utility.yul\":6191:6196   */\n      dup2\n        /* \"#utility.yul\":6188:6223   */\n      eq\n        /* \"#utility.yul\":6178:6241   */\n      tag_202\n      jumpi\n        /* \"#utility.yul\":6237:6238   */\n      0x00\n        /* \"#utility.yul\":6234:6235   */\n      dup1\n        /* \"#utility.yul\":6227:6239   */\n      revert\n        /* \"#utility.yul\":6178:6241   */\n    tag_202:\n        /* \"#utility.yul\":6125:6247   */\n      pop\n      jump\t// out\n        /* \"#utility.yul\":6253:6392   */\n    tag_106:\n        /* \"#utility.yul\":6299:6304   */\n      0x00\n        /* \"#utility.yul\":6337:6343   */\n      dup2\n        /* \"#utility.yul\":6324:6344   */\n      calldataload\n        /* \"#utility.yul\":6315:6344   */\n      swap1\n      pop\n        /* \"#utility.yul\":6353:6386   */\n      tag_204\n        /* \"#utility.yul\":6380:6385   */\n      dup2\n        /* \"#utility.yul\":6353:6386   */\n      tag_105\n      jump\t// in\n    tag_204:\n        /* \"#utility.yul\":6253:6392   */\n      swap3\n      swap2\n      pop\n      pop\n      jump\t// out\n        /* \"#utility.yul\":6398:6727   */\n    tag_28:\n        /* \"#utility.yul\":6457:6463   */\n      0x00\n        /* \"#utility.yul\":6506:6508   */\n      0x20\n        /* \"#utility.yul\":6494:6503   */\n      dup3\n        /* \"#utility.yul\":6485:6492   */\n      dup5\n        /* \"#utility.yul\":6481:6504   */\n      sub\n        /* \"#utility.yul\":6477:6509   */\n      slt\n        /* \"#utility.yul\":6474:6593   */\n      iszero\n      tag_206\n      jumpi\n        /* \"#utility.yul\":6512:6591   */\n      tag_207\n      tag_85\n      jump\t// in\n    tag_207:\n        /* \"#utility.yul\":6474:6593   */\n    tag_206:\n        /* \"#utility.yul\":6632:6633   */\n      0x00\n        /* \"#utility.yul\":6657:6710   */\n      tag_208\n        /* \"#utility.yul\":6702:6709   */\n      dup5\n        /* \"#utility.yul\":6693:6699   */\n      dup3\n        /* \"#utility.yul\":6682:6691   */\n      dup6\n        /* \"#utility.yul\":6678:6700   */\n      add\n        /* \"#utility.yul\":6657:6710   */\n      tag_106\n      jump\t// in\n    tag_208:\n        /* \"#utility.yul\":6647:6710   */\n      swap2\n      pop\n        /* \"#utility.yul\":6603:6720   */\n      pop\n        /* \"#utility.yul\":6398:6727   */\n      swap3\n      swap2\n      pop\n      pop\n      jump\t// out\n        /* \"#utility.yul\":6733:6851   */\n    tag_107:\n        /* \"#utility.yul\":6820:6844   */\n      tag_210\n        /* \"#utility.yul\":6838:6843   */\n      dup2\n        /* \"#utility.yul\":6820:6844   */\n      tag_104\n      jump\t// in\n    tag_210:\n        /* \"#utility.yul\":6815:6818   */\n      dup3\n        /* \"#utility.yul\":6808:6845   */\n      mstore\n        /* \"#utility.yul\":6733:6851   */\n      pop\n      pop\n      jump\t// out\n        /* \"#utility.yul\":6857:6947   */\n    tag_108:\n        /* \"#utility.yul\":6891:6898   */\n      0x00\n        /* \"#utility.yul\":6934:6939   */\n      dup2\n        /* \"#utility.yul\":6927:6940   */\n      iszero\n        /* \"#utility.yul\":6920:6941   */\n      iszero\n        /* \"#utility.yul\":6909:6941   */\n      swap1\n      pop\n        /* \"#utility.yul\":6857:6947   */\n      swap2\n      swap1\n      pop\n      jump\t// out\n        /* \"#utility.yul\":6953:7062   */\n    tag_109:\n        /* \"#utility.yul\":7034:7055   */\n      tag_213\n        /* \"#utility.yul\":7049:7054   */\n      dup2\n        /* \"#utility.yul\":7034:7055   */\n      tag_108\n      jump\t// in\n    tag_213:\n        /* \"#utility.yul\":7029:7032   */\n      dup3\n        /* \"#utility.yul\":7022:7056   */\n      mstore\n        /* \"#utility.yul\":6953:7062   */\n      pop\n      pop\n      jump\t// out\n        /* \"#utility.yul\":7068:7388   */\n    tag_31:\n        /* \"#utility.yul\":7183:7187   */\n      0x00\n        /* \"#utility.yul\":7221:7223   */\n      0x40\n        /* \"#utility.yul\":7210:7219   */\n      dup3\n        /* \"#utility.yul\":7206:7224   */\n      add\n        /* \"#utility.yul\":7198:7224   */\n      swap1\n      pop\n        /* \"#utility.yul\":7234:7305   */\n      tag_215\n        /* \"#utility.yul\":7302:7303   */\n      0x00\n        /* \"#utility.yul\":7291:7300   */\n      dup4\n        /* \"#utility.yul\":7287:7304   */\n      add\n        /* \"#utility.yul\":7278:7284   */\n      dup6\n        /* \"#utility.yul\":7234:7305   */\n      tag_107\n      jump\t// in\n    tag_215:\n        /* \"#utility.yul\":7315:7381   */\n      tag_216\n        /* \"#utility.yul\":7377:7379   */\n      0x20\n        /* \"#utility.yul\":7366:7375   */\n      dup4\n        /* \"#utility.yul\":7362:7380   */\n      add\n        /* \"#utility.yul\":7353:7359   */\n      dup5\n        /* \"#utility.yul\":7315:7381   */\n      tag_109\n      jump\t// in\n    tag_216:\n        /* \"#utility.yul\":7068:7388   */\n      swap4\n      swap3\n      pop\n      pop\n      pop\n      jump\t// out\n        /* \"#utility.yul\":7394:7512   */\n    tag_110:\n        /* \"#utility.yul\":7481:7505   */\n      tag_218\n        /* \"#utility.yul\":7499:7504   */\n      dup2\n        /* \"#utility.yul\":7481:7505   */\n      tag_88\n      jump\t// in\n    tag_218:\n        /* \"#utility.yul\":7476:7479   */\n      dup3\n        /* \"#utility.yul\":7469:7506   */\n      mstore\n        /* \"#utility.yul\":7394:7512   */\n      pop\n      pop\n      jump\t// out\n        /* \"#utility.yul\":7518:7740   */\n    tag_35:\n        /* \"#utility.yul\":7611:7615   */\n      0x00\n        /* \"#utility.yul\":7649:7651   */\n      0x20\n        /* \"#utility.yul\":7638:7647   */\n      dup3\n        /* \"#utility.yul\":7634:7652   */\n      add\n        /* \"#utility.yul\":7626:7652   */\n      swap1\n      pop\n        /* \"#utility.yul\":7662:7733   */\n      tag_220\n        /* \"#utility.yul\":7730:7731   */\n      0x00\n        /* \"#utility.yul\":7719:7728   */\n      dup4\n        /* \"#utility.yul\":7715:7732   */\n      add\n        /* \"#utility.yul\":7706:7712   */\n      dup5\n        /* \"#utility.yul\":7662:7733   */\n      tag_110\n      jump\t// in\n    tag_220:\n        /* \"#utility.yul\":7518:7740   */\n      swap3\n      swap2\n      pop\n      pop\n      jump\t// out\n        /* \"#utility.yul\":7746:7845   */\n    tag_111:\n        /* \"#utility.yul\":7798:7804   */\n      0x00\n        /* \"#utility.yul\":7832:7837   */\n      dup2\n        /* \"#utility.yul\":7826:7838   */\n      mload\n        /* \"#utility.yul\":7816:7838   */\n      swap1\n      pop\n        /* \"#utility.yul\":7746:7845   */\n      swap2\n      swap1\n      pop\n      jump\t// out\n        /* \"#utility.yul\":7851:8020   */\n    tag_112:\n        /* \"#utility.yul\":7935:7946   */\n      0x00\n        /* \"#utility.yul\":7969:7975   */\n      dup3\n        /* \"#utility.yul\":7964:7967   */\n      dup3\n        /* \"#utility.yul\":7957:7976   */\n      mstore\n        /* \"#utility.yul\":8009:8013   */\n      0x20\n        /* \"#utility.yul\":8004:8007   */\n      dup3\n        /* \"#utility.yul\":8000:8014   */\n      add\n        /* \"#utility.yul\":7985:8014   */\n      swap1\n      pop\n        /* \"#utility.yul\":7851:8020   */\n      swap3\n      swap2\n      pop\n      pop\n      jump\t// out\n        /* \"#utility.yul\":8026:8165   */\n    tag_113:\n        /* \"#utility.yul\":8115:8121   */\n      dup3\n        /* \"#utility.yul\":8110:8113   */\n      dup2\n        /* \"#utility.yul\":8105:8108   */\n      dup4\n        /* \"#utility.yul\":8099:8122   */\n      mcopy\n        /* \"#utility.yul\":8156:8157   */\n      0x00\n        /* \"#utility.yul\":8147:8153   */\n      dup4\n        /* \"#utility.yul\":8142:8145   */\n      dup4\n        /* \"#utility.yul\":8138:8154   */\n      add\n        /* \"#utility.yul\":8131:8158   */\n      mstore\n        /* \"#utility.yul\":8026:8165   */\n      pop\n      pop\n      pop\n      jump\t// out\n        /* \"#utility.yul\":8171:8548   */\n    tag_114:\n        /* \"#utility.yul\":8259:8262   */\n      0x00\n        /* \"#utility.yul\":8287:8326   */\n      tag_225\n        /* \"#utility.yul\":8320:8325   */\n      dup3\n        /* \"#utility.yul\":8287:8326   */\n      tag_111\n      jump\t// in\n    tag_225:\n        /* \"#utility.yul\":8342:8413   */\n      tag_226\n        /* \"#utility.yul\":8406:8412   */\n      dup2\n        /* \"#utility.yul\":8401:8404   */\n      dup6\n        /* \"#utility.yul\":8342:8413   */\n      tag_112\n      jump\t// in\n    tag_226:\n        /* \"#utility.yul\":8335:8413   */\n      swap4\n      pop\n        /* \"#utility.yul\":8422:8487   */\n      tag_227\n        /* \"#utility.yul\":8480:8486   */\n      dup2\n        /* \"#utility.yul\":8475:8478   */\n      dup6\n        /* \"#utility.yul\":8468:8472   */\n      0x20\n        /* \"#utility.yul\":8461:8466   */\n      dup7\n        /* \"#utility.yul\":8457:8473   */\n      add\n        /* \"#utility.yul\":8422:8487   */\n      tag_113\n      jump\t// in\n    tag_227:\n        /* \"#utility.yul\":8512:8541   */\n      tag_228\n        /* \"#utility.yul\":8534:8540   */\n      dup2\n        /* \"#utility.yul\":8512:8541   */\n      tag_93\n      jump\t// in\n    tag_228:\n        /* \"#utility.yul\":8507:8510   */\n      dup5\n        /* \"#utility.yul\":8503:8542   */\n      add\n        /* \"#utility.yul\":8496:8542   */\n      swap2\n      pop\n        /* \"#utility.yul\":8263:8548   */\n      pop\n        /* \"#utility.yul\":8171:8548   */\n      swap3\n      swap2\n      pop\n      pop\n      jump\t// out\n        /* \"#utility.yul\":8554:8867   */\n    tag_40:\n        /* \"#utility.yul\":8667:8671   */\n      0x00\n        /* \"#utility.yul\":8705:8707   */\n      0x20\n        /* \"#utility.yul\":8694:8703   */\n      dup3\n        /* \"#utility.yul\":8690:8708   */\n      add\n        /* \"#utility.yul\":8682:8708   */\n      swap1\n      pop\n        /* \"#utility.yul\":8754:8763   */\n      dup2\n        /* \"#utility.yul\":8748:8752   */\n      dup2\n        /* \"#utility.yul\":8744:8764   */\n      sub\n        /* \"#utility.yul\":8740:8741   */\n      0x00\n        /* \"#utility.yul\":8729:8738   */\n      dup4\n        /* \"#utility.yul\":8725:8742   */\n      add\n        /* \"#utility.yul\":8718:8765   */\n      mstore\n        /* \"#utility.yul\":8782:8860   */\n      tag_230\n        /* \"#utility.yul\":8855:8859   */\n      dup2\n        /* \"#utility.yul\":8846:8852   */\n      dup5\n        /* \"#utility.yul\":8782:8860   */\n      tag_114\n      jump\t// in\n    tag_230:\n        /* \"#utility.yul\":8774:8860   */\n      swap1\n      pop\n        /* \"#utility.yul\":8554:8867   */\n      swap3\n      swap2\n      pop\n      pop\n      jump\t// out\n        /* \"#utility.yul\":8873:9083   */\n    tag_45:\n        /* \"#utility.yul\":8960:8964   */\n      0x00\n        /* \"#utility.yul\":8998:9000   */\n      0x20\n        /* \"#utility.yul\":8987:8996   */\n      dup3\n        /* \"#utility.yul\":8983:9001   */\n      add\n        /* \"#utility.yul\":8975:9001   */\n      swap1\n      pop\n        /* \"#utility.yul\":9011:9076   */\n      tag_232\n        /* \"#utility.yul\":9073:9074   */\n      0x00\n        /* \"#utility.yul\":9062:9071   */\n      dup4\n        /* \"#utility.yul\":9058:9075   */\n      add\n        /* \"#utility.yul\":9049:9055   */\n      dup5\n        /* \"#utility.yul\":9011:9076   */\n      tag_109\n      jump\t// in\n    tag_232:\n        /* \"#utility.yul\":8873:9083   */\n      swap3\n      swap2\n      pop\n      pop\n      jump\t// out\n        /* \"#utility.yul\":9089:9314   */\n    tag_115:\n        /* \"#utility.yul\":9229:9263   */\n      0x4f6e6c7920746865206f776e65722063616e20706572666f726d207468697320\n        /* \"#utility.yul\":9225:9226   */\n      0x00\n        /* \"#utility.yul\":9217:9223   */\n      dup3\n        /* \"#utility.yul\":9213:9227   */\n      add\n        /* \"#utility.yul\":9206:9264   */\n      mstore\n        /* \"#utility.yul\":9298:9306   */\n      0x616374696f6e0000000000000000000000000000000000000000000000000000\n        /* \"#utility.yul\":9293:9295   */\n      0x20\n        /* \"#utility.yul\":9285:9291   */\n      dup3\n        /* \"#utility.yul\":9281:9296   */\n      add\n        /* \"#utility.yul\":9274:9307   */\n      mstore\n        /* \"#utility.yul\":9089:9314   */\n      pop\n      jump\t// out\n        /* \"#utility.yul\":9320:9686   */\n    tag_116:\n        /* \"#utility.yul\":9462:9465   */\n      0x00\n        /* \"#utility.yul\":9483:9550   */\n      tag_235\n        /* \"#utility.yul\":9547:9549   */\n      0x26\n        /* \"#utility.yul\":9542:9545   */\n      dup4\n        /* \"#utility.yul\":9483:9550   */\n      tag_112\n      jump\t// in\n    tag_235:\n        /* \"#utility.yul\":9476:9550   */\n      swap2\n      pop\n        /* \"#utility.yul\":9559:9652   */\n      tag_236\n        /* \"#utility.yul\":9648:9651   */\n      dup3\n        /* \"#utility.yul\":9559:9652   */\n      tag_115\n      jump\t// in\n    tag_236:\n        /* \"#utility.yul\":9677:9679   */\n      0x40\n        /* \"#utility.yul\":9672:9675   */\n      dup3\n        /* \"#utility.yul\":9668:9680   */\n      add\n        /* \"#utility.yul\":9661:9680   */\n      swap1\n      pop\n        /* \"#utility.yul\":9320:9686   */\n      swap2\n      swap1\n      pop\n      jump\t// out\n        /* \"#utility.yul\":9692:10111   */\n    tag_49:\n        /* \"#utility.yul\":9858:9862   */\n      0x00\n        /* \"#utility.yul\":9896:9898   */\n      0x20\n        /* \"#utility.yul\":9885:9894   */\n      dup3\n        /* \"#utility.yul\":9881:9899   */\n      add\n        /* \"#utility.yul\":9873:9899   */\n      swap1\n      pop\n        /* \"#utility.yul\":9945:9954   */\n      dup2\n        /* \"#utility.yul\":9939:9943   */\n      dup2\n        /* \"#utility.yul\":9935:9955   */\n      sub\n        /* \"#utility.yul\":9931:9932   */\n      0x00\n        /* \"#utility.yul\":9920:9929   */\n      dup4\n        /* \"#utility.yul\":9916:9933   */\n      add\n        /* \"#utility.yul\":9909:9956   */\n      mstore\n        /* \"#utility.yul\":9973:10104   */\n      tag_238\n        /* \"#utility.yul\":10099:10103   */\n      dup2\n        /* \"#utility.yul\":9973:10104   */\n      tag_116\n      jump\t// in\n    tag_238:\n        /* \"#utility.yul\":9965:10104   */\n      swap1\n      pop\n        /* \"#utility.yul\":9692:10111   */\n      swap2\n      swap1\n      pop\n      jump\t// out\n        /* \"#utility.yul\":10117:10291   */\n    tag_117:\n        /* \"#utility.yul\":10257:10283   */\n      0x4e6f7420616e20617574686f72697a6564206973737565720000000000000000\n        /* \"#utility.yul\":10253:10254   */\n      0x00\n        /* \"#utility.yul\":10245:10251   */\n      dup3\n        /* \"#utility.yul\":10241:10255   */\n      add\n        /* \"#utility.yul\":10234:10284   */\n      mstore\n        /* \"#utility.yul\":10117:10291   */\n      pop\n      jump\t// out\n        /* \"#utility.yul\":10297:10663   */\n    tag_118:\n        /* \"#utility.yul\":10439:10442   */\n      0x00\n        /* \"#utility.yul\":10460:10527   */\n      tag_241\n        /* \"#utility.yul\":10524:10526   */\n      0x18\n        /* \"#utility.yul\":10519:10522   */\n      dup4\n        /* \"#utility.yul\":10460:10527   */\n      tag_112\n      jump\t// in\n    tag_241:\n        /* \"#utility.yul\":10453:10527   */\n      swap2\n      pop\n        /* \"#utility.yul\":10536:10629   */\n      tag_242\n        /* \"#utility.yul\":10625:10628   */\n      dup3\n        /* \"#utility.yul\":10536:10629   */\n      tag_117\n      jump\t// in\n    tag_242:\n        /* \"#utility.yul\":10654:10656   */\n      0x20\n        /* \"#utility.yul\":10649:10652   */\n      dup3\n        /* \"#utility.yul\":10645:10657   */\n      add\n        /* \"#utility.yul\":10638:10657   */\n      swap1\n      pop\n        /* \"#utility.yul\":10297:10663   */\n      swap2\n      swap1\n      pop\n      jump\t// out\n        /* \"#utility.yul\":10669:11088   */\n    tag_58:\n        /* \"#utility.yul\":10835:10839   */\n      0x00\n        /* \"#utility.yul\":10873:10875   */\n      0x20\n        /* \"#utility.yul\":10862:10871   */\n      dup3\n        /* \"#utility.yul\":10858:10876   */\n      add\n        /* \"#utility.yul\":10850:10876   */\n      swap1\n      pop\n        /* \"#utility.yul\":10922:10931   */\n      dup2\n        /* \"#utility.yul\":10916:10920   */\n      dup2\n        /* \"#utility.yul\":10912:10932   */\n      sub\n        /* \"#utility.yul\":10908:10909   */\n      0x00\n        /* \"#utility.yul\":10897:10906   */\n      dup4\n        /* \"#utility.yul\":10893:10910   */\n      add\n        /* \"#utility.yul\":10886:10933   */\n      mstore\n        /* \"#utility.yul\":10950:11081   */\n      tag_244\n        /* \"#utility.yul\":11076:11080   */\n      dup2\n        /* \"#utility.yul\":10950:11081   */\n      tag_118\n      jump\t// in\n    tag_244:\n        /* \"#utility.yul\":10942:11081   */\n      swap1\n      pop\n        /* \"#utility.yul\":10669:11088   */\n      swap2\n      swap1\n      pop\n      jump\t// out\n        /* \"#utility.yul\":11094:11242   */\n    tag_119:\n        /* \"#utility.yul\":11196:11207   */\n      0x00\n        /* \"#utility.yul\":11233:11236   */\n      dup2\n        /* \"#utility.yul\":11218:11236   */\n      swap1\n      pop\n        /* \"#utility.yul\":11094:11242   */\n      swap3\n      swap2\n      pop\n      pop\n      jump\t// out\n        /* \"#utility.yul\":11248:11638   */\n    tag_120:\n        /* \"#utility.yul\":11354:11357   */\n      0x00\n        /* \"#utility.yul\":11382:11421   */\n      tag_247\n        /* \"#utility.yul\":11415:11420   */\n      dup3\n        /* \"#utility.yul\":11382:11421   */\n      tag_111\n      jump\t// in\n    tag_247:\n        /* \"#utility.yul\":11437:11526   */\n      tag_248\n        /* \"#utility.yul\":11519:11525   */\n      dup2\n        /* \"#utility.yul\":11514:11517   */\n      dup6\n        /* \"#utility.yul\":11437:11526   */\n      tag_119\n      jump\t// in\n    tag_248:\n        /* \"#utility.yul\":11430:11526   */\n      swap4\n      pop\n        /* \"#utility.yul\":11535:11600   */\n      tag_249\n        /* \"#utility.yul\":11593:11599   */\n      dup2\n        /* \"#utility.yul\":11588:11591   */\n      dup6\n        /* \"#utility.yul\":11581:11585   */\n      0x20\n        /* \"#utility.yul\":11574:11579   */\n      dup7\n        /* \"#utility.yul\":11570:11586   */\n      add\n        /* \"#utility.yul\":11535:11600   */\n      tag_113\n      jump\t// in\n    tag_249:\n        /* \"#utility.yul\":11625:11631   */\n      dup1\n        /* \"#utility.yul\":11620:11623   */\n      dup5\n        /* \"#utility.yul\":11616:11632   */\n      add\n        /* \"#utility.yul\":11609:11632   */\n      swap2\n      pop\n        /* \"#utility.yul\":11358:11638   */\n      pop\n        /* \"#utility.yul\":11248:11638   */\n      swap3\n      swap2\n      pop\n      pop\n      jump\t// out\n        /* \"#utility.yul\":11644:11723   */\n    tag_121:\n        /* \"#utility.yul\":11683:11690   */\n      0x00\n        /* \"#utility.yul\":11712:11717   */\n      dup2\n        /* \"#utility.yul\":11701:11717   */\n      swap1\n      pop\n        /* \"#utility.yul\":11644:11723   */\n      swap2\n      swap1\n      pop\n      jump\t// out\n        /* \"#utility.yul\":11729:11886   */\n    tag_122:\n        /* \"#utility.yul\":11834:11879   */\n      tag_252\n        /* \"#utility.yul\":11854:11878   */\n      tag_253\n        /* \"#utility.yul\":11872:11877   */\n      dup3\n        /* \"#utility.yul\":11854:11878   */\n      tag_101\n      jump\t// in\n    tag_253:\n        /* \"#utility.yul\":11834:11879   */\n      tag_121\n      jump\t// in\n    tag_252:\n        /* \"#utility.yul\":11829:11832   */\n      dup3\n        /* \"#utility.yul\":11822:11880   */\n      mstore\n        /* \"#utility.yul\":11729:11886   */\n      pop\n      pop\n      jump\t// out\n        /* \"#utility.yul\":11892:13108   */\n    tag_61:\n        /* \"#utility.yul\":12292:12295   */\n      0x00\n        /* \"#utility.yul\":12314:12409   */\n      tag_255\n        /* \"#utility.yul\":12405:12408   */\n      dup3\n        /* \"#utility.yul\":12396:12402   */\n      dup11\n        /* \"#utility.yul\":12314:12409   */\n      tag_120\n      jump\t// in\n    tag_255:\n        /* \"#utility.yul\":12307:12409   */\n      swap2\n      pop\n        /* \"#utility.yul\":12426:12521   */\n      tag_256\n        /* \"#utility.yul\":12517:12520   */\n      dup3\n        /* \"#utility.yul\":12508:12514   */\n      dup10\n        /* \"#utility.yul\":12426:12521   */\n      tag_120\n      jump\t// in\n    tag_256:\n        /* \"#utility.yul\":12419:12521   */\n      swap2\n      pop\n        /* \"#utility.yul\":12538:12633   */\n      tag_257\n        /* \"#utility.yul\":12629:12632   */\n      dup3\n        /* \"#utility.yul\":12620:12626   */\n      dup9\n        /* \"#utility.yul\":12538:12633   */\n      tag_120\n      jump\t// in\n    tag_257:\n        /* \"#utility.yul\":12531:12633   */\n      swap2\n      pop\n        /* \"#utility.yul\":12650:12745   */\n      tag_258\n        /* \"#utility.yul\":12741:12744   */\n      dup3\n        /* \"#utility.yul\":12732:12738   */\n      dup8\n        /* \"#utility.yul\":12650:12745   */\n      tag_120\n      jump\t// in\n    tag_258:\n        /* \"#utility.yul\":12643:12745   */\n      swap2\n      pop\n        /* \"#utility.yul\":12762:12857   */\n      tag_259\n        /* \"#utility.yul\":12853:12856   */\n      dup3\n        /* \"#utility.yul\":12844:12850   */\n      dup7\n        /* \"#utility.yul\":12762:12857   */\n      tag_120\n      jump\t// in\n    tag_259:\n        /* \"#utility.yul\":12755:12857   */\n      swap2\n      pop\n        /* \"#utility.yul\":12867:12942   */\n      tag_260\n        /* \"#utility.yul\":12938:12941   */\n      dup3\n        /* \"#utility.yul\":12929:12935   */\n      dup6\n        /* \"#utility.yul\":12867:12942   */\n      tag_122\n      jump\t// in\n    tag_260:\n        /* \"#utility.yul\":12967:12969   */\n      0x20\n        /* \"#utility.yul\":12962:12965   */\n      dup3\n        /* \"#utility.yul\":12958:12970   */\n      add\n        /* \"#utility.yul\":12951:12970   */\n      swap2\n      pop\n        /* \"#utility.yul\":12987:13082   */\n      tag_261\n        /* \"#utility.yul\":13078:13081   */\n      dup3\n        /* \"#utility.yul\":13069:13075   */\n      dup5\n        /* \"#utility.yul\":12987:13082   */\n      tag_120\n      jump\t// in\n    tag_261:\n        /* \"#utility.yul\":12980:13082   */\n      swap2\n      pop\n        /* \"#utility.yul\":13099:13102   */\n      dup2\n        /* \"#utility.yul\":13092:13102   */\n      swap1\n      pop\n        /* \"#utility.yul\":11892:13108   */\n      swap9\n      swap8\n      pop\n      pop\n      pop\n      pop\n      pop\n      pop\n      pop\n      pop\n      jump\t// out\n        /* \"#utility.yul\":13114:13291   */\n    tag_123:\n        /* \"#utility.yul\":13254:13283   */\n      0x436572746966696361746520646f6573206e6f742065786973742e0000000000\n        /* \"#utility.yul\":13250:13251   */\n      0x00\n        /* \"#utility.yul\":13242:13248   */\n      dup3\n        /* \"#utility.yul\":13238:13252   */\n      add\n        /* \"#utility.yul\":13231:13284   */\n      mstore\n        /* \"#utility.yul\":13114:13291   */\n      pop\n      jump\t// out\n        /* \"#utility.yul\":13297:13663   */\n    tag_124:\n        /* \"#utility.yul\":13439:13442   */\n      0x00\n        /* \"#utility.yul\":13460:13527   */\n      tag_264\n        /* \"#utility.yul\":13524:13526   */\n      0x1b\n        /* \"#utility.yul\":13519:13522   */\n      dup4\n        /* \"#utility.yul\":13460:13527   */\n      tag_112\n      jump\t// in\n    tag_264:\n        /* \"#utility.yul\":13453:13527   */\n      swap2\n      pop\n        /* \"#utility.yul\":13536:13629   */\n      tag_265\n        /* \"#utility.yul\":13625:13628   */\n      dup3\n        /* \"#utility.yul\":13536:13629   */\n      tag_123\n      jump\t// in\n    tag_265:\n        /* \"#utility.yul\":13654:13656   */\n      0x20\n        /* \"#utility.yul\":13649:13652   */\n      dup3\n        /* \"#utility.yul\":13645:13657   */\n      add\n        /* \"#utility.yul\":13638:13657   */\n      swap1\n      pop\n        /* \"#utility.yul\":13297:13663   */\n      swap2\n      swap1\n      pop\n      jump\t// out\n        /* \"#utility.yul\":13669:14088   */\n    tag_64:\n        /* \"#utility.yul\":13835:13839   */\n      0x00\n        /* \"#utility.yul\":13873:13875   */\n      0x20\n        /* \"#utility.yul\":13862:13871   */\n      dup3\n        /* \"#utility.yul\":13858:13876   */\n      add\n        /* \"#utility.yul\":13850:13876   */\n      swap1\n      pop\n        /* \"#utility.yul\":13922:13931   */\n      dup2\n        /* \"#utility.yul\":13916:13920   */\n      dup2\n        /* \"#utility.yul\":13912:13932   */\n      sub\n        /* \"#utility.yul\":13908:13909   */\n      0x00\n        /* \"#utility.yul\":13897:13906   */\n      dup4\n        /* \"#utility.yul\":13893:13910   */\n      add\n        /* \"#utility.yul\":13886:13933   */\n      mstore\n        /* \"#utility.yul\":13950:14081   */\n      tag_267\n        /* \"#utility.yul\":14076:14080   */\n      dup2\n        /* \"#utility.yul\":13950:14081   */\n      tag_124\n      jump\t// in\n    tag_267:\n        /* \"#utility.yul\":13942:14081   */\n      swap1\n      pop\n        /* \"#utility.yul\":13669:14088   */\n      swap2\n      swap1\n      pop\n      jump\t// out\n        /* \"#utility.yul\":14094:14272   */\n    tag_125:\n        /* \"#utility.yul\":14234:14264   */\n      0x436572746966696361746520616c7265616479207265766f6b65642e00000000\n        /* \"#utility.yul\":14230:14231   */\n      0x00\n        /* \"#utility.yul\":14222:14228   */\n      dup3\n        /* \"#utility.yul\":14218:14232   */\n      add\n        /* \"#utility.yul\":14211:14265   */\n      mstore\n        /* \"#utility.yul\":14094:14272   */\n      pop\n      jump\t// out\n        /* \"#utility.yul\":14278:14644   */\n    tag_126:\n        /* \"#utility.yul\":14420:14423   */\n      0x00\n        /* \"#utility.yul\":14441:14508   */\n      tag_270\n        /* \"#utility.yul\":14505:14507   */\n      0x1c\n        /* \"#utility.yul\":14500:14503   */\n      dup4\n        /* \"#utility.yul\":14441:14508   */\n      tag_112\n      jump\t// in\n    tag_270:\n        /* \"#utility.yul\":14434:14508   */\n      swap2\n      pop\n        /* \"#utility.yul\":14517:14610   */\n      tag_271\n        /* \"#utility.yul\":14606:14609   */\n      dup3\n        /* \"#utility.yul\":14517:14610   */\n      tag_125\n      jump\t// in\n    tag_271:\n        /* \"#utility.yul\":14635:14637   */\n      0x20\n        /* \"#utility.yul\":14630:14633   */\n      dup3\n        /* \"#utility.yul\":14626:14638   */\n      add\n        /* \"#utility.yul\":14619:14638   */\n      swap1\n      pop\n        /* \"#utility.yul\":14278:14644   */\n      swap2\n      swap1\n      pop\n      jump\t// out\n        /* \"#utility.yul\":14650:15069   */\n    tag_67:\n        /* \"#utility.yul\":14816:14820   */\n      0x00\n        /* \"#utility.yul\":14854:14856   */\n      0x20\n        /* \"#utility.yul\":14843:14852   */\n      dup3\n        /* \"#utility.yul\":14839:14857   */\n      add\n        /* \"#utility.yul\":14831:14857   */\n      swap1\n      pop\n        /* \"#utility.yul\":14903:14912   */\n      dup2\n        /* \"#utility.yul\":14897:14901   */\n      dup2\n        /* \"#utility.yul\":14893:14913   */\n      sub\n        /* \"#utility.yul\":14889:14890   */\n      0x00\n        /* \"#utility.yul\":14878:14887   */\n      dup4\n        /* \"#utility.yul\":14874:14891   */\n      add\n        /* \"#utility.yul\":14867:14914   */\n      mstore\n        /* \"#utility.yul\":14931:15062   */\n      tag_273\n        /* \"#utility.yul\":15057:15061   */\n      dup2\n        /* \"#utility.yul\":14931:15062   */\n      tag_126\n      jump\t// in\n    tag_273:\n        /* \"#utility.yul\":14923:15062   */\n      swap1\n      pop\n        /* \"#utility.yul\":14650:15069   */\n      swap2\n      swap1\n      pop\n      jump\t// out\n        /* \"#utility.yul\":15075:15252   */\n    tag_127:\n        /* \"#utility.yul\":15215:15244   */\n      0x436572746966696361746520616c7265616479206578697374732e0000000000\n        /* \"#utility.yul\":15211:15212   */\n      0x00\n        /* \"#utility.yul\":15203:15209   */\n      dup3\n        /* \"#utility.yul\":15199:15213   */\n      add\n        /* \"#utility.yul\":15192:15245   */\n      mstore\n        /* \"#utility.yul\":15075:15252   */\n      pop\n      jump\t// out\n        /* \"#utility.yul\":15258:15624   */\n    tag_128:\n        /* \"#utility.yul\":15400:15403   */\n      0x00\n        /* \"#utility.yul\":15421:15488   */\n      tag_276\n        /* \"#utility.yul\":15485:15487   */\n      0x1b\n        /* \"#utility.yul\":15480:15483   */\n      dup4\n        /* \"#utility.yul\":15421:15488   */\n      tag_112\n      jump\t// in\n    tag_276:\n        /* \"#utility.yul\":15414:15488   */\n      swap2\n      pop\n        /* \"#utility.yul\":15497:15590   */\n      tag_277\n        /* \"#utility.yul\":15586:15589   */\n      dup3\n        /* \"#utility.yul\":15497:15590   */\n      tag_127\n      jump\t// in\n    tag_277:\n        /* \"#utility.yul\":15615:15617   */\n      0x20\n        /* \"#utility.yul\":15610:15613   */\n      dup3\n        /* \"#utility.yul\":15606:15618   */\n      add\n        /* \"#utility.yul\":15599:15618   */\n      swap1\n      pop\n        /* \"#utility.yul\":15258:15624   */\n      swap2\n      swap1\n      pop\n      jump\t// out\n        /* \"#utility.yul\":15630:16049   */\n    tag_76:\n        /* \"#utility.yul\":15796:15800   */\n      0x00\n        /* \"#utility.yul\":15834:15836   */\n      0x20\n        /* \"#utility.yul\":15823:15832   */\n      dup3\n        /* \"#utility.yul\":15819:15837   */\n      add\n        /* \"#utility.yul\":15811:15837   */\n      swap1\n      pop\n        /* \"#utility.yul\":15883:15892   */\n      dup2\n        /* \"#utility.yul\":15877:15881   */\n      dup2\n        /* \"#utility.yul\":15873:15893   */\n      sub\n        /* \"#utility.yul\":15869:15870   */\n      0x00\n        /* \"#utility.yul\":15858:15867   */\n      dup4\n        /* \"#utility.yul\":15854:15871   */\n      add\n        /* \"#utility.yul\":15847:15894   */\n      mstore\n        /* \"#utility.yul\":15911:16042   */\n      tag_279\n        /* \"#utility.yul\":16037:16041   */\n      dup2\n        /* \"#utility.yul\":15911:16042   */\n      tag_128\n      jump\t// in\n    tag_279:\n        /* \"#utility.yul\":15903:16042   */\n      swap1\n      pop\n        /* \"#utility.yul\":15630:16049   */\n      swap2\n      swap1\n      pop\n      jump\t// out\n\n    auxdata: 0xa264697066735822122049aafe5aa47ecbb560e5fb9df9ecd81a75584e34accb8bc5d934219001fbae6264736f6c634300081a0033\n}\n",
				"bytecode": {
					"linkReferences": {},
					"object": "6080604052348015600e575f80fd5b50335f806101000a81548173ffffffffffffffffffffffffffffffffffffffff021916908373ffffffffffffffffffffffffffffffffffffffff16021790555061110c8061005b5f395ff3fe608060405234801561000f575f80fd5b5060043610610086575f3560e01c8063742f068811610059578063742f0688146100fa5780638da5cb5b1461012b5780638fc5bb9a14610149578063f731fa0f1461017957610086565b806320694db01461008a57806347bc7093146100a6578063678167d4146100c257806373113353146100de575b5f80fd5b6100a4600480360381019061009f9190610998565b6101a9565b005b6100c060048036038101906100bb9190610998565b6102d0565b005b6100dc60048036038101906100d79190610b32565b6103f7565b005b6100f860048036038101906100f39190610b32565b6105dc565b005b610114600480360381019061010f9190610caa565b610786565b604051610122929190610cfe565b60405180910390f35b6101336107b2565b6040516101409190610d34565b60405180910390f35b610163600480360381019061015e9190610b32565b6107d5565b6040516101709190610dad565b60405180910390f35b610193600480360381019061018e9190610998565b610910565b6040516101a09190610dcd565b60405180910390f35b5f8054906101000a900473ffffffffffffffffffffffffffffffffffffffff1673ffffffffffffffffffffffffffffffffffffffff163373ffffffffffffffffffffffffffffffffffffffff1614610236576040517f08c379a000000000000000000000000000000000000000000000000000000000815260040161022d90610e56565b60405180910390fd5b6001805f8373ffffffffffffffffffffffffffffffffffffffff1673ffffffffffffffffffffffffffffffffffffffff1681526020019081526020015f205f6101000a81548160ff0219169083151502179055508073ffffffffffffffffffffffffffffffffffffffff167f05e7c881d716bee8cb7ed92293133ba156704252439e5c502c277448f04e20c260405160405180910390a250565b5f8054906101000a900473ffffffffffffffffffffffffffffffffffffffff1673ffffffffffffffffffffffffffffffffffffffff163373ffffffffffffffffffffffffffffffffffffffff161461035d576040517f08c379a000000000000000000000000000000000000000000000000000000000815260040161035490610e56565b60405180910390fd5b5f60015f8373ffffffffffffffffffffffffffffffffffffffff1673ffffffffffffffffffffffffffffffffffffffff1681526020019081526020015f205f6101000a81548160ff0219169083151502179055508073ffffffffffffffffffffffffffffffffffffffff167faf66545c919a3be306ee446d8f42a9558b5b022620df880517bc9593ec0f2d5260405160405180910390a250565b60015f3373ffffffffffffffffffffffffffffffffffffffff1673ffffffffffffffffffffffffffffffffffffffff1681526020019081526020015f205f9054906101000a900460ff16610480576040517f08c379a000000000000000000000000000000000000000000000000000000000815260040161047790610ebe565b60405180910390fd5b5f8787878787878760405160200161049e9796959493929190610f36565b6040516020818303038152906040528051906020012090505f801b60025f8381526020019081526020015f205f01540361050d576040517f08c379a000000000000000000000000000000000000000000000000000000000815260040161050490610fe8565b60405180910390fd5b60025f8281526020019081526020015f206001015f9054906101000a900460ff161561056e576040517f08c379a000000000000000000000000000000000000000000000000000000000815260040161056590611050565b60405180910390fd5b600160025f8381526020019081526020015f206001015f6101000a81548160ff021916908315150217905550807f6a67f6498e0156955d3a658d7124084b43548b0eaa26ee2105ccf42059efe112876040516105ca9190610dad565b60405180910390a25050505050505050565b60015f3373ffffffffffffffffffffffffffffffffffffffff1673ffffffffffffffffffffffffffffffffffffffff1681526020019081526020015f205f9054906101000a900460ff16610665576040517f08c379a000000000000000000000000000000000000000000000000000000000815260040161065c90610ebe565b60405180910390fd5b5f878787878787876040516020016106839796959493929190610f36565b6040516020818303038152906040528051906020012090505f801b60025f8381526020019081526020015f205f0154146106f2576040517f08c379a00000000000000000000000000000000000000000000000000000000081526004016106e9906110b8565b60405180910390fd5b60405180604001604052808281526020015f151581525060025f8381526020019081526020015f205f820151815f01556020820151816001015f6101000a81548160ff021916908315150217905550905050807faeb7e439524e4d35b43e6ccb53c42a2fe0361d2e96be31ebc6e2c3cb72aadb94876040516107749190610dad565b60405180910390a25050505050505050565b6002602052805f5260405f205f91509050805f015490806001015f9054906101000a900460ff16905082565b5f8054906101000a900473ffffffffffffffffffffffffffffffffffffffff1681565b60605f888888888888886040516020016107f59796959493929190610f36565b6040516020818303038152906040528051906020012090505f801b60025f8381526020019081526020015f205f015403610867576040518060400160405280601b81526020017f436572746966696361746520646f6573206e6f742065786973742e0000000000815250915050610905565b60025f8281526020019081526020015f206001015f9054906101000a900460ff16156108cb576040518060400160405280601781526020017f4365727469666963617465206973207265766f6b65642e000000000000000000815250915050610905565b6040518060400160405280601581526020017f43657274696669636174652069732076616c69642e00000000000000000000008152509150505b979650505050505050565b6001602052805f5260405f205f915054906101000a900460ff1681565b5f604051905090565b5f80fd5b5f80fd5b5f73ffffffffffffffffffffffffffffffffffffffff82169050919050565b5f6109678261093e565b9050919050565b6109778161095d565b8114610981575f80fd5b50565b5f813590506109928161096e565b92915050565b5f602082840312156109ad576109ac610936565b5b5f6109ba84828501610984565b91505092915050565b5f80fd5b5f80fd5b5f601f19601f8301169050919050565b7f4e487b71000000000000000000000000000000000000000000000000000000005f52604160045260245ffd5b610a11826109cb565b810181811067ffffffffffffffff82111715610a3057610a2f6109db565b5b80604052505050565b5f610a4261092d565b9050610a4e8282610a08565b919050565b5f67ffffffffffffffff821115610a6d57610a6c6109db565b5b610a76826109cb565b9050602081019050919050565b828183375f83830152505050565b5f610aa3610a9e84610a53565b610a39565b905082815260208101848484011115610abf57610abe6109c7565b5b610aca848285610a83565b509392505050565b5f82601f830112610ae657610ae56109c3565b5b8135610af6848260208601610a91565b91505092915050565b5f819050919050565b610b1181610aff565b8114610b1b575f80fd5b50565b5f81359050610b2c81610b08565b92915050565b5f805f805f805f60e0888a031215610b4d57610b4c610936565b5b5f88013567ffffffffffffffff811115610b6a57610b6961093a565b5b610b768a828b01610ad2565b975050602088013567ffffffffffffffff811115610b9757610b9661093a565b5b610ba38a828b01610ad2565b965050604088013567ffffffffffffffff811115610bc457610bc361093a565b5b610bd08a828b01610ad2565b955050606088013567ffffffffffffffff811115610bf157610bf061093a565b5b610bfd8a828b01610ad2565b945050608088013567ffffffffffffffff811115610c1e57610c1d61093a565b5b610c2a8a828b01610ad2565b93505060a0610c3b8a828b01610b1e565b92505060c088013567ffffffffffffffff811115610c5c57610c5b61093a565b5b610c688a828b01610ad2565b91505092959891949750929550565b5f819050919050565b610c8981610c77565b8114610c93575f80fd5b50565b5f81359050610ca481610c80565b92915050565b5f60208284031215610cbf57610cbe610936565b5b5f610ccc84828501610c96565b91505092915050565b610cde81610c77565b82525050565b5f8115159050919050565b610cf881610ce4565b82525050565b5f604082019050610d115f830185610cd5565b610d1e6020830184610cef565b9392505050565b610d2e8161095d565b82525050565b5f602082019050610d475f830184610d25565b92915050565b5f81519050919050565b5f82825260208201905092915050565b8281835e5f83830152505050565b5f610d7f82610d4d565b610d898185610d57565b9350610d99818560208601610d67565b610da2816109cb565b840191505092915050565b5f6020820190508181035f830152610dc58184610d75565b905092915050565b5f602082019050610de05f830184610cef565b92915050565b7f4f6e6c7920746865206f776e65722063616e20706572666f726d2074686973205f8201527f616374696f6e0000000000000000000000000000000000000000000000000000602082015250565b5f610e40602683610d57565b9150610e4b82610de6565b604082019050919050565b5f6020820190508181035f830152610e6d81610e34565b9050919050565b7f4e6f7420616e20617574686f72697a65642069737375657200000000000000005f82015250565b5f610ea8601883610d57565b9150610eb382610e74565b602082019050919050565b5f6020820190508181035f830152610ed581610e9c565b9050919050565b5f81905092915050565b5f610ef082610d4d565b610efa8185610edc565b9350610f0a818560208601610d67565b80840191505092915050565b5f819050919050565b610f30610f2b82610aff565b610f16565b82525050565b5f610f41828a610ee6565b9150610f4d8289610ee6565b9150610f598288610ee6565b9150610f658287610ee6565b9150610f718286610ee6565b9150610f7d8285610f1f565b602082019150610f8d8284610ee6565b915081905098975050505050505050565b7f436572746966696361746520646f6573206e6f742065786973742e00000000005f82015250565b5f610fd2601b83610d57565b9150610fdd82610f9e565b602082019050919050565b5f6020820190508181035f830152610fff81610fc6565b9050919050565b7f436572746966696361746520616c7265616479207265766f6b65642e000000005f82015250565b5f61103a601c83610d57565b915061104582611006565b602082019050919050565b5f6020820190508181035f8301526110678161102e565b9050919050565b7f436572746966696361746520616c7265616479206578697374732e00000000005f82015250565b5f6110a2601b83610d57565b91506110ad8261106e565b602082019050919050565b5f6020820190508181035f8301526110cf81611096565b905091905056fea264697066735822122049aafe5aa47ecbb560e5fb9df9ecd81a75584e34accb8bc5d934219001fbae6264736f6c634300081a0033",
					"opcodes": "PUSH1 0x80 PUSH1 0x40 MSTORE CALLVALUE DUP1 ISZERO PUSH1 0xE JUMPI PUSH0 DUP1 REVERT JUMPDEST POP CALLER PUSH0 DUP1 PUSH2 0x100 EXP DUP2 SLOAD DUP2 PUSH20 0xFFFFFFFFFFFFFFFFFFFFFFFFFFFFFFFFFFFFFFFF MUL NOT AND SWAP1 DUP4 PUSH20 0xFFFFFFFFFFFFFFFFFFFFFFFFFFFFFFFFFFFFFFFF AND MUL OR SWAP1 SSTORE POP PUSH2 0x110C DUP1 PUSH2 0x5B PUSH0 CODECOPY PUSH0 RETURN INVALID PUSH1 0x80 PUSH1 0x40 MSTORE CALLVALUE DUP1 ISZERO PUSH2 0xF JUMPI PUSH0 DUP1 REVERT JUMPDEST POP PUSH1 0x4 CALLDATASIZE LT PUSH2 0x86 JUMPI PUSH0 CALLDATALOAD PUSH1 0xE0 SHR DUP1 PUSH4 0x742F0688 GT PUSH2 0x59 JUMPI DUP1 PUSH4 0x742F0688 EQ PUSH2 0xFA JUMPI DUP1 PUSH4 0x8DA5CB5B EQ PUSH2 0x12B JUMPI DUP1 PUSH4 0x8FC5BB9A EQ PUSH2 0x149 JUMPI DUP1 PUSH4 0xF731FA0F EQ PUSH2 0x179 JUMPI PUSH2 0x86 JUMP JUMPDEST DUP1 PUSH4 0x20694DB0 EQ PUSH2 0x8A JUMPI DUP1 PUSH4 0x47BC7093 EQ PUSH2 0xA6 JUMPI DUP1 PUSH4 0x678167D4 EQ PUSH2 0xC2 JUMPI DUP1 PUSH4 0x73113353 EQ PUSH2 0xDE JUMPI JUMPDEST PUSH0 DUP1 REVERT JUMPDEST PUSH2 0xA4 PUSH1 0x4 DUP1 CALLDATASIZE SUB DUP2 ADD SWAP1 PUSH2 0x9F SWAP2 SWAP1 PUSH2 0x998 JUMP JUMPDEST PUSH2 0x1A9 JUMP JUMPDEST STOP JUMPDEST PUSH2 0xC0 PUSH1 0x4 DUP1 CALLDATASIZE SUB DUP2 ADD SWAP1 PUSH2 0xBB SWAP2 SWAP1 PUSH2 0x998 JUMP JUMPDEST PUSH2 0x2D0 JUMP JUMPDEST STOP JUMPDEST PUSH2 0xDC PUSH1 0x4 DUP1 CALLDATASIZE SUB DUP2 ADD SWAP1 PUSH2 0xD7 SWAP2 SWAP1 PUSH2 0xB32 JUMP JUMPDEST PUSH2 0x3F7 JUMP JUMPDEST STOP JUMPDEST PUSH2 0xF8 PUSH1 0x4 DUP1 CALLDATASIZE SUB DUP2 ADD SWAP1 PUSH2 0xF3 SWAP2 SWAP1 PUSH2 0xB32 JUMP JUMPDEST PUSH2 0x5DC JUMP JUMPDEST STOP JUMPDEST PUSH2 0x114 PUSH1 0x4 DUP1 CALLDATASIZE SUB DUP2 ADD SWAP1 PUSH2 0x10F SWAP2 SWAP1 PUSH2 0xCAA JUMP JUMPDEST PUSH2 0x786 JUMP JUMPDEST PUSH1 0x40 MLOAD PUSH2 0x122 SWAP3 SWAP2 SWAP1 PUSH2 0xCFE JUMP JUMPDEST PUSH1 0x40 MLOAD DUP1 SWAP2 SUB SWAP1 RETURN JUMPDEST PUSH2 0x133 PUSH2 0x7B2 JUMP JUMPDEST PUSH1 0x40 MLOAD PUSH2 0x140 SWAP2 SWAP1 PUSH2 0xD34 JUMP JUMPDEST PUSH1 0x40 MLOAD DUP1 SWAP2 SUB SWAP1 RETURN JUMPDEST PUSH2 0x163 PUSH1 0x4 DUP1 CALLDATASIZE SUB DUP2 ADD SWAP1 PUSH2 0x15E SWAP2 SWAP1 PUSH2 0xB32 JUMP JUMPDEST PUSH2 0x7D5 JUMP JUMPDEST PUSH1 0x40 MLOAD PUSH2 0x170 SWAP2 SWAP1 PUSH2 0xDAD JUMP JUMPDEST PUSH1 0x40 MLOAD DUP1 SWAP2 SUB SWAP1 RETURN JUMPDEST PUSH2 0x193 PUSH1 0x4 DUP1 CALLDATASIZE SUB DUP2 ADD SWAP1 PUSH2 0x18E SWAP2 SWAP1 PUSH2 0x998 JUMP JUMPDEST PUSH2 0x910 JUMP JUMPDEST PUSH1 0x40 MLOAD PUSH2 0x1A0 SWAP2 SWAP1 PUSH2 0xDCD JUMP JUMPDEST PUSH1 0x40 MLOAD DUP1 SWAP2 SUB SWAP1 RETURN JUMPDEST PUSH0 DUP1 SLOAD SWAP1 PUSH2 0x100 EXP SWAP1 DIV PUSH20 0xFFFFFFFFFFFFFFFFFFFFFFFFFFFFFFFFFFFFFFFF AND PUSH20 0xFFFFFFFFFFFFFFFFFFFFFFFFFFFFFFFFFFFFFFFF AND CALLER PUSH20 0xFFFFFFFFFFFFFFFFFFFFFFFFFFFFFFFFFFFFFFFF AND EQ PUSH2 0x236 JUMPI PUSH1 0x40 MLOAD PUSH32 0x8C379A000000000000000000000000000000000000000000000000000000000 DUP2 MSTORE PUSH1 0x4 ADD PUSH2 0x22D SWAP1 PUSH2 0xE56 JUMP JUMPDEST PUSH1 0x40 MLOAD DUP1 SWAP2 SUB SWAP1 REVERT JUMPDEST PUSH1 0x1 DUP1 PUSH0 DUP4 PUSH20 0xFFFFFFFFFFFFFFFFFFFFFFFFFFFFFFFFFFFFFFFF AND PUSH20 0xFFFFFFFFFFFFFFFFFFFFFFFFFFFFFFFFFFFFFFFF AND DUP2 MSTORE PUSH1 0x20 ADD SWAP1 DUP2 MSTORE PUSH1 0x20 ADD PUSH0 KECCAK256 PUSH0 PUSH2 0x100 EXP DUP2 SLOAD DUP2 PUSH1 0xFF MUL NOT AND SWAP1 DUP4 ISZERO ISZERO MUL OR SWAP1 SSTORE POP DUP1 PUSH20 0xFFFFFFFFFFFFFFFFFFFFFFFFFFFFFFFFFFFFFFFF AND PUSH32 0x5E7C881D716BEE8CB7ED92293133BA156704252439E5C502C277448F04E20C2 PUSH1 0x40 MLOAD PUSH1 0x40 MLOAD DUP1 SWAP2 SUB SWAP1 LOG2 POP JUMP JUMPDEST PUSH0 DUP1 SLOAD SWAP1 PUSH2 0x100 EXP SWAP1 DIV PUSH20 0xFFFFFFFFFFFFFFFFFFFFFFFFFFFFFFFFFFFFFFFF AND PUSH20 0xFFFFFFFFFFFFFFFFFFFFFFFFFFFFFFFFFFFFFFFF AND CALLER PUSH20 0xFFFFFFFFFFFFFFFFFFFFFFFFFFFFFFFFFFFFFFFF AND EQ PUSH2 0x35D JUMPI PUSH1 0x40 MLOAD PUSH32 0x8C379A000000000000000000000000000000000000000000000000000000000 DUP2 MSTORE PUSH1 0x4 ADD PUSH2 0x354 SWAP1 PUSH2 0xE56 JUMP JUMPDEST PUSH1 0x40 MLOAD DUP1 SWAP2 SUB SWAP1 REVERT JUMPDEST PUSH0 PUSH1 0x1 PUSH0 DUP4 PUSH20 0xFFFFFFFFFFFFFFFFFFFFFFFFFFFFFFFFFFFFFFFF AND PUSH20 0xFFFFFFFFFFFFFFFFFFFFFFFFFFFFFFFFFFFFFFFF AND DUP2 MSTORE PUSH1 0x20 ADD SWAP1 DUP2 MSTORE PUSH1 0x20 ADD PUSH0 KECCAK256 PUSH0 PUSH2 0x100 EXP DUP2 SLOAD DUP2 PUSH1 0xFF MUL NOT AND SWAP1 DUP4 ISZERO ISZERO MUL OR SWAP1 SSTORE POP DUP1 PUSH20 0xFFFFFFFFFFFFFFFFFFFFFFFFFFFFFFFFFFFFFFFF AND PUSH32 0xAF66545C919A3BE306EE446D8F42A9558B5B022620DF880517BC9593EC0F2D52 PUSH1 0x40 MLOAD PUSH1 0x40 MLOAD DUP1 SWAP2 SUB SWAP1 LOG2 POP JUMP JUMPDEST PUSH1 0x1 PUSH0 CALLER PUSH20 0xFFFFFFFFFFFFFFFFFFFFFFFFFFFFFFFFFFFFFFFF AND PUSH20 0xFFFFFFFFFFFFFFFFFFFFFFFFFFFFFFFFFFFFFFFF AND DUP2 MSTORE PUSH1 0x20 ADD SWAP1 DUP2 MSTORE PUSH1 0x20 ADD PUSH0 KECCAK256 PUSH0 SWAP1 SLOAD SWAP1 PUSH2 0x100 EXP SWAP1 DIV PUSH1 0xFF AND PUSH2 0x480 JUMPI PUSH1 0x40 MLOAD PUSH32 0x8C379A000000000000000000000000000000000000000000000000000000000 DUP2 MSTORE PUSH1 0x4 ADD PUSH2 0x477 SWAP1 PUSH2 0xEBE JUMP JUMPDEST PUSH1 0x40 MLOAD DUP1 SWAP2 SUB SWAP1 REVERT JUMPDEST PUSH0 DUP8 DUP8 DUP8 DUP8 DUP8 DUP8 DUP8 PUSH1 0x40 MLOAD PUSH1 0x20 ADD PUSH2 0x49E SWAP8 SWAP7 SWAP6 SWAP5 SWAP4 SWAP3 SWAP2 SWAP1 PUSH2 0xF36 JUMP JUMPDEST PUSH1 0x40 MLOAD PUSH1 0x20 DUP2 DUP4 SUB SUB DUP2 MSTORE SWAP1 PUSH1 0x40 MSTORE DUP1 MLOAD SWAP1 PUSH1 0x20 ADD KECCAK256 SWAP1 POP PUSH0 DUP1 SHL PUSH1 0x2 PUSH0 DUP4 DUP2 MSTORE PUSH1 0x20 ADD SWAP1 DUP2 MSTORE PUSH1 0x20 ADD PUSH0 KECCAK256 PUSH0 ADD SLOAD SUB PUSH2 0x50D JUMPI PUSH1 0x40 MLOAD PUSH32 0x8C379A000000000000000000000000000000000000000000000000000000000 DUP2 MSTORE PUSH1 0x4 ADD PUSH2 0x504 SWAP1 PUSH2 0xFE8 JUMP JUMPDEST PUSH1 0x40 MLOAD DUP1 SWAP2 SUB SWAP1 REVERT JUMPDEST PUSH1 0x2 PUSH0 DUP3 DUP2 MSTORE PUSH1 0x20 ADD SWAP1 DUP2 MSTORE PUSH1 0x20 ADD PUSH0 KECCAK256 PUSH1 0x1 ADD PUSH0 SWAP1 SLOAD SWAP1 PUSH2 0x100 EXP SWAP1 DIV PUSH1 0xFF AND ISZERO PUSH2 0x56E JUMPI PUSH1 0x40 MLOAD PUSH32 0x8C379A000000000000000000000000000000000000000000000000000000000 DUP2 MSTORE PUSH1 0x4 ADD PUSH2 0x565 SWAP1 PUSH2 0x1050 JUMP JUMPDEST PUSH1 0x40 MLOAD DUP1 SWAP2 SUB SWAP1 REVERT JUMPDEST PUSH1 0x1 PUSH1 0x2 PUSH0 DUP4 DUP2 MSTORE PUSH1 0x20 ADD SWAP1 DUP2 MSTORE PUSH1 0x20 ADD PUSH0 KECCAK256 PUSH1 0x1 ADD PUSH0 PUSH2 0x100 EXP DUP2 SLOAD DUP2 PUSH1 0xFF MUL NOT AND SWAP1 DUP4 ISZERO ISZERO MUL OR SWAP1 SSTORE POP DUP1 PUSH32 0x6A67F6498E0156955D3A658D7124084B43548B0EAA26EE2105CCF42059EFE112 DUP8 PUSH1 0x40 MLOAD PUSH2 0x5CA SWAP2 SWAP1 PUSH2 0xDAD JUMP JUMPDEST PUSH1 0x40 MLOAD DUP1 SWAP2 SUB SWAP1 LOG2 POP POP POP POP POP POP POP POP JUMP JUMPDEST PUSH1 0x1 PUSH0 CALLER PUSH20 0xFFFFFFFFFFFFFFFFFFFFFFFFFFFFFFFFFFFFFFFF AND PUSH20 0xFFFFFFFFFFFFFFFFFFFFFFFFFFFFFFFFFFFFFFFF AND DUP2 MSTORE PUSH1 0x20 ADD SWAP1 DUP2 MSTORE PUSH1 0x20 ADD PUSH0 KECCAK256 PUSH0 SWAP1 SLOAD SWAP1 PUSH2 0x100 EXP SWAP1 DIV PUSH1 0xFF AND PUSH2 0x665 JUMPI PUSH1 0x40 MLOAD PUSH32 0x8C379A000000000000000000000000000000000000000000000000000000000 DUP2 MSTORE PUSH1 0x4 ADD PUSH2 0x65C SWAP1 PUSH2 0xEBE JUMP JUMPDEST PUSH1 0x40 MLOAD DUP1 SWAP2 SUB SWAP1 REVERT JUMPDEST PUSH0 DUP8 DUP8 DUP8 DUP8 DUP8 DUP8 DUP8 PUSH1 0x40 MLOAD PUSH1 0x20 ADD PUSH2 0x683 SWAP8 SWAP7 SWAP6 SWAP5 SWAP4 SWAP3 SWAP2 SWAP1 PUSH2 0xF36 JUMP JUMPDEST PUSH1 0x40 MLOAD PUSH1 0x20 DUP2 DUP4 SUB SUB DUP2 MSTORE SWAP1 PUSH1 0x40 MSTORE DUP1 MLOAD SWAP1 PUSH1 0x20 ADD KECCAK256 SWAP1 POP PUSH0 DUP1 SHL PUSH1 0x2 PUSH0 DUP4 DUP2 MSTORE PUSH1 0x20 ADD SWAP1 DUP2 MSTORE PUSH1 0x20 ADD PUSH0 KECCAK256 PUSH0 ADD SLOAD EQ PUSH2 0x6F2 JUMPI PUSH1 0x40 MLOAD PUSH32 0x8C379A000000000000000000000000000000000000000000000000000000000 DUP2 MSTORE PUSH1 0x4 ADD PUSH2 0x6E9 SWAP1 PUSH2 0x10B8 JUMP JUMPDEST PUSH1 0x40 MLOAD DUP1 SWAP2 SUB SWAP1 REVERT JUMPDEST PUSH1 0x40 MLOAD DUP1 PUSH1 0x40 ADD PUSH1 0x40 MSTORE DUP1 DUP3 DUP2 MSTORE PUSH1 0x20 ADD PUSH0 ISZERO ISZERO DUP2 MSTORE POP PUSH1 0x2 PUSH0 DUP4 DUP2 MSTORE PUSH1 0x20 ADD SWAP1 DUP2 MSTORE PUSH1 0x20 ADD PUSH0 KECCAK256 PUSH0 DUP3 ADD MLOAD DUP2 PUSH0 ADD SSTORE PUSH1 0x20 DUP3 ADD MLOAD DUP2 PUSH1 0x1 ADD PUSH0 PUSH2 0x100 EXP DUP2 SLOAD DUP2 PUSH1 0xFF MUL NOT AND SWAP1 DUP4 ISZERO ISZERO MUL OR SWAP1 SSTORE POP SWAP1 POP POP DUP1 PUSH32 0xAEB7E439524E4D35B43E6CCB53C42A2FE0361D2E96BE31EBC6E2C3CB72AADB94 DUP8 PUSH1 0x40 MLOAD PUSH2 0x774 SWAP2 SWAP1 PUSH2 0xDAD JUMP JUMPDEST PUSH1 0x40 MLOAD DUP1 SWAP2 SUB SWAP1 LOG2 POP POP POP POP POP POP POP POP JUMP JUMPDEST PUSH1 0x2 PUSH1 0x20 MSTORE DUP1 PUSH0 MSTORE PUSH1 0x40 PUSH0 KECCAK256 PUSH0 SWAP2 POP SWAP1 POP DUP1 PUSH0 ADD SLOAD SWAP1 DUP1 PUSH1 0x1 ADD PUSH0 SWAP1 SLOAD SWAP1 PUSH2 0x100 EXP SWAP1 DIV PUSH1 0xFF AND SWAP1 POP DUP3 JUMP JUMPDEST PUSH0 DUP1 SLOAD SWAP1 PUSH2 0x100 EXP SWAP1 DIV PUSH20 0xFFFFFFFFFFFFFFFFFFFFFFFFFFFFFFFFFFFFFFFF AND DUP2 JUMP JUMPDEST PUSH1 0x60 PUSH0 DUP9 DUP9 DUP9 DUP9 DUP9 DUP9 DUP9 PUSH1 0x40 MLOAD PUSH1 0x20 ADD PUSH2 0x7F5 SWAP8 SWAP7 SWAP6 SWAP5 SWAP4 SWAP3 SWAP2 SWAP1 PUSH2 0xF36 JUMP JUMPDEST PUSH1 0x40 MLOAD PUSH1 0x20 DUP2 DUP4 SUB SUB DUP2 MSTORE SWAP1 PUSH1 0x40 MSTORE DUP1 MLOAD SWAP1 PUSH1 0x20 ADD KECCAK256 SWAP1 POP PUSH0 DUP1 SHL PUSH1 0x2 PUSH0 DUP4 DUP2 MSTORE PUSH1 0x20 ADD SWAP1 DUP2 MSTORE PUSH1 0x20 ADD PUSH0 KECCAK256 PUSH0 ADD SLOAD SUB PUSH2 0x867 JUMPI PUSH1 0x40 MLOAD DUP1 PUSH1 0x40 ADD PUSH1 0x40 MSTORE DUP1 PUSH1 0x1B DUP2 MSTORE PUSH1 0x20 ADD PUSH32 0x436572746966696361746520646F6573206E6F742065786973742E0000000000 DUP2 MSTORE POP SWAP2 POP POP PUSH2 0x905 JUMP JUMPDEST PUSH1 0x2 PUSH0 DUP3 DUP2 MSTORE PUSH1 0x20 ADD SWAP1 DUP2 MSTORE PUSH1 0x20 ADD PUSH0 KECCAK256 PUSH1 0x1 ADD PUSH0 SWAP1 SLOAD SWAP1 PUSH2 0x100 EXP SWAP1 DIV PUSH1 0xFF AND ISZERO PUSH2 0x8CB JUMPI PUSH1 0x40 MLOAD DUP1 PUSH1 0x40 ADD PUSH1 0x40 MSTORE DUP1 PUSH1 0x17 DUP2 MSTORE PUSH1 0x20 ADD PUSH32 0x4365727469666963617465206973207265766F6B65642E000000000000000000 DUP2 MSTORE POP SWAP2 POP POP PUSH2 0x905 JUMP JUMPDEST PUSH1 0x40 MLOAD DUP1 PUSH1 0x40 ADD PUSH1 0x40 MSTORE DUP1 PUSH1 0x15 DUP2 MSTORE PUSH1 0x20 ADD PUSH32 0x43657274696669636174652069732076616C69642E0000000000000000000000 DUP2 MSTORE POP SWAP2 POP POP JUMPDEST SWAP8 SWAP7 POP POP POP POP POP POP POP JUMP JUMPDEST PUSH1 0x1 PUSH1 0x20 MSTORE DUP1 PUSH0 MSTORE PUSH1 0x40 PUSH0 KECCAK256 PUSH0 SWAP2 POP SLOAD SWAP1 PUSH2 0x100 EXP SWAP1 DIV PUSH1 0xFF AND DUP2 JUMP JUMPDEST PUSH0 PUSH1 0x40 MLOAD SWAP1 POP SWAP1 JUMP JUMPDEST PUSH0 DUP1 REVERT JUMPDEST PUSH0 DUP1 REVERT JUMPDEST PUSH0 PUSH20 0xFFFFFFFFFFFFFFFFFFFFFFFFFFFFFFFFFFFFFFFF DUP3 AND SWAP1 POP SWAP2 SWAP1 POP JUMP JUMPDEST PUSH0 PUSH2 0x967 DUP3 PUSH2 0x93E JUMP JUMPDEST SWAP1 POP SWAP2 SWAP1 POP JUMP JUMPDEST PUSH2 0x977 DUP2 PUSH2 0x95D JUMP JUMPDEST DUP2 EQ PUSH2 0x981 JUMPI PUSH0 DUP1 REVERT JUMPDEST POP JUMP JUMPDEST PUSH0 DUP2 CALLDATALOAD SWAP1 POP PUSH2 0x992 DUP2 PUSH2 0x96E JUMP JUMPDEST SWAP3 SWAP2 POP POP JUMP JUMPDEST PUSH0 PUSH1 0x20 DUP3 DUP5 SUB SLT ISZERO PUSH2 0x9AD JUMPI PUSH2 0x9AC PUSH2 0x936 JUMP JUMPDEST JUMPDEST PUSH0 PUSH2 0x9BA DUP5 DUP3 DUP6 ADD PUSH2 0x984 JUMP JUMPDEST SWAP2 POP POP SWAP3 SWAP2 POP POP JUMP JUMPDEST PUSH0 DUP1 REVERT JUMPDEST PUSH0 DUP1 REVERT JUMPDEST PUSH0 PUSH1 0x1F NOT PUSH1 0x1F DUP4 ADD AND SWAP1 POP SWAP2 SWAP1 POP JUMP JUMPDEST PUSH32 0x4E487B7100000000000000000000000000000000000000000000000000000000 PUSH0 MSTORE PUSH1 0x41 PUSH1 0x4 MSTORE PUSH1 0x24 PUSH0 REVERT JUMPDEST PUSH2 0xA11 DUP3 PUSH2 0x9CB JUMP JUMPDEST DUP2 ADD DUP2 DUP2 LT PUSH8 0xFFFFFFFFFFFFFFFF DUP3 GT OR ISZERO PUSH2 0xA30 JUMPI PUSH2 0xA2F PUSH2 0x9DB JUMP JUMPDEST JUMPDEST DUP1 PUSH1 0x40 MSTORE POP POP POP JUMP JUMPDEST PUSH0 PUSH2 0xA42 PUSH2 0x92D JUMP JUMPDEST SWAP1 POP PUSH2 0xA4E DUP3 DUP3 PUSH2 0xA08 JUMP JUMPDEST SWAP2 SWAP1 POP JUMP JUMPDEST PUSH0 PUSH8 0xFFFFFFFFFFFFFFFF DUP3 GT ISZERO PUSH2 0xA6D JUMPI PUSH2 0xA6C PUSH2 0x9DB JUMP JUMPDEST JUMPDEST PUSH2 0xA76 DUP3 PUSH2 0x9CB JUMP JUMPDEST SWAP1 POP PUSH1 0x20 DUP2 ADD SWAP1 POP SWAP2 SWAP1 POP JUMP JUMPDEST DUP3 DUP2 DUP4 CALLDATACOPY PUSH0 DUP4 DUP4 ADD MSTORE POP POP POP JUMP JUMPDEST PUSH0 PUSH2 0xAA3 PUSH2 0xA9E DUP5 PUSH2 0xA53 JUMP JUMPDEST PUSH2 0xA39 JUMP JUMPDEST SWAP1 POP DUP3 DUP2 MSTORE PUSH1 0x20 DUP2 ADD DUP5 DUP5 DUP5 ADD GT ISZERO PUSH2 0xABF JUMPI PUSH2 0xABE PUSH2 0x9C7 JUMP JUMPDEST JUMPDEST PUSH2 0xACA DUP5 DUP3 DUP6 PUSH2 0xA83 JUMP JUMPDEST POP SWAP4 SWAP3 POP POP POP JUMP JUMPDEST PUSH0 DUP3 PUSH1 0x1F DUP4 ADD SLT PUSH2 0xAE6 JUMPI PUSH2 0xAE5 PUSH2 0x9C3 JUMP JUMPDEST JUMPDEST DUP2 CALLDATALOAD PUSH2 0xAF6 DUP5 DUP3 PUSH1 0x20 DUP7 ADD PUSH2 0xA91 JUMP JUMPDEST SWAP2 POP POP SWAP3 SWAP2 POP POP JUMP JUMPDEST PUSH0 DUP2 SWAP1 POP SWAP2 SWAP1 POP JUMP JUMPDEST PUSH2 0xB11 DUP2 PUSH2 0xAFF JUMP JUMPDEST DUP2 EQ PUSH2 0xB1B JUMPI PUSH0 DUP1 REVERT JUMPDEST POP JUMP JUMPDEST PUSH0 DUP2 CALLDATALOAD SWAP1 POP PUSH2 0xB2C DUP2 PUSH2 0xB08 JUMP JUMPDEST SWAP3 SWAP2 POP POP JUMP JUMPDEST PUSH0 DUP1 PUSH0 DUP1 PUSH0 DUP1 PUSH0 PUSH1 0xE0 DUP9 DUP11 SUB SLT ISZERO PUSH2 0xB4D JUMPI PUSH2 0xB4C PUSH2 0x936 JUMP JUMPDEST JUMPDEST PUSH0 DUP9 ADD CALLDATALOAD PUSH8 0xFFFFFFFFFFFFFFFF DUP2 GT ISZERO PUSH2 0xB6A JUMPI PUSH2 0xB69 PUSH2 0x93A JUMP JUMPDEST JUMPDEST PUSH2 0xB76 DUP11 DUP3 DUP12 ADD PUSH2 0xAD2 JUMP JUMPDEST SWAP8 POP POP PUSH1 0x20 DUP9 ADD CALLDATALOAD PUSH8 0xFFFFFFFFFFFFFFFF DUP2 GT ISZERO PUSH2 0xB97 JUMPI PUSH2 0xB96 PUSH2 0x93A JUMP JUMPDEST JUMPDEST PUSH2 0xBA3 DUP11 DUP3 DUP12 ADD PUSH2 0xAD2 JUMP JUMPDEST SWAP7 POP POP PUSH1 0x40 DUP9 ADD CALLDATALOAD PUSH8 0xFFFFFFFFFFFFFFFF DUP2 GT ISZERO PUSH2 0xBC4 JUMPI PUSH2 0xBC3 PUSH2 0x93A JUMP JUMPDEST JUMPDEST PUSH2 0xBD0 DUP11 DUP3 DUP12 ADD PUSH2 0xAD2 JUMP JUMPDEST SWAP6 POP POP PUSH1 0x60 DUP9 ADD CALLDATALOAD PUSH8 0xFFFFFFFFFFFFFFFF DUP2 GT ISZERO PUSH2 0xBF1 JUMPI PUSH2 0xBF0 PUSH2 0x93A JUMP JUMPDEST JUMPDEST PUSH2 0xBFD DUP11 DUP3 DUP12 ADD PUSH2 0xAD2 JUMP JUMPDEST SWAP5 POP POP PUSH1 0x80 DUP9 ADD CALLDATALOAD PUSH8 0xFFFFFFFFFFFFFFFF DUP2 GT ISZERO PUSH2 0xC1E JUMPI PUSH2 0xC1D PUSH2 0x93A JUMP JUMPDEST JUMPDEST PUSH2 0xC2A DUP11 DUP3 DUP12 ADD PUSH2 0xAD2 JUMP JUMPDEST SWAP4 POP POP PUSH1 0xA0 PUSH2 0xC3B DUP11 DUP3 DUP12 ADD PUSH2 0xB1E JUMP JUMPDEST SWAP3 POP POP PUSH1 0xC0 DUP9 ADD CALLDATALOAD PUSH8 0xFFFFFFFFFFFFFFFF DUP2 GT ISZERO PUSH2 0xC5C JUMPI PUSH2 0xC5B PUSH2 0x93A JUMP JUMPDEST JUMPDEST PUSH2 0xC68 DUP11 DUP3 DUP12 ADD PUSH2 0xAD2 JUMP JUMPDEST SWAP2 POP POP SWAP3 SWAP6 SWAP9 SWAP2 SWAP5 SWAP8 POP SWAP3 SWAP6 POP JUMP JUMPDEST PUSH0 DUP2 SWAP1 POP SWAP2 SWAP1 POP JUMP JUMPDEST PUSH2 0xC89 DUP2 PUSH2 0xC77 JUMP JUMPDEST DUP2 EQ PUSH2 0xC93 JUMPI PUSH0 DUP1 REVERT JUMPDEST POP JUMP JUMPDEST PUSH0 DUP2 CALLDATALOAD SWAP1 POP PUSH2 0xCA4 DUP2 PUSH2 0xC80 JUMP JUMPDEST SWAP3 SWAP2 POP POP JUMP JUMPDEST PUSH0 PUSH1 0x20 DUP3 DUP5 SUB SLT ISZERO PUSH2 0xCBF JUMPI PUSH2 0xCBE PUSH2 0x936 JUMP JUMPDEST JUMPDEST PUSH0 PUSH2 0xCCC DUP5 DUP3 DUP6 ADD PUSH2 0xC96 JUMP JUMPDEST SWAP2 POP POP SWAP3 SWAP2 POP POP JUMP JUMPDEST PUSH2 0xCDE DUP2 PUSH2 0xC77 JUMP JUMPDEST DUP3 MSTORE POP POP JUMP JUMPDEST PUSH0 DUP2 ISZERO ISZERO SWAP1 POP SWAP2 SWAP1 POP JUMP JUMPDEST PUSH2 0xCF8 DUP2 PUSH2 0xCE4 JUMP JUMPDEST DUP3 MSTORE POP POP JUMP JUMPDEST PUSH0 PUSH1 0x40 DUP3 ADD SWAP1 POP PUSH2 0xD11 PUSH0 DUP4 ADD DUP6 PUSH2 0xCD5 JUMP JUMPDEST PUSH2 0xD1E PUSH1 0x20 DUP4 ADD DUP5 PUSH2 0xCEF JUMP JUMPDEST SWAP4 SWAP3 POP POP POP JUMP JUMPDEST PUSH2 0xD2E DUP2 PUSH2 0x95D JUMP JUMPDEST DUP3 MSTORE POP POP JUMP JUMPDEST PUSH0 PUSH1 0x20 DUP3 ADD SWAP1 POP PUSH2 0xD47 PUSH0 DUP4 ADD DUP5 PUSH2 0xD25 JUMP JUMPDEST SWAP3 SWAP2 POP POP JUMP JUMPDEST PUSH0 DUP2 MLOAD SWAP1 POP SWAP2 SWAP1 POP JUMP JUMPDEST PUSH0 DUP3 DUP3 MSTORE PUSH1 0x20 DUP3 ADD SWAP1 POP SWAP3 SWAP2 POP POP JUMP JUMPDEST DUP3 DUP2 DUP4 MCOPY PUSH0 DUP4 DUP4 ADD MSTORE POP POP POP JUMP JUMPDEST PUSH0 PUSH2 0xD7F DUP3 PUSH2 0xD4D JUMP JUMPDEST PUSH2 0xD89 DUP2 DUP6 PUSH2 0xD57 JUMP JUMPDEST SWAP4 POP PUSH2 0xD99 DUP2 DUP6 PUSH1 0x20 DUP7 ADD PUSH2 0xD67 JUMP JUMPDEST PUSH2 0xDA2 DUP2 PUSH2 0x9CB JUMP JUMPDEST DUP5 ADD SWAP2 POP POP SWAP3 SWAP2 POP POP JUMP JUMPDEST PUSH0 PUSH1 0x20 DUP3 ADD SWAP1 POP DUP2 DUP2 SUB PUSH0 DUP4 ADD MSTORE PUSH2 0xDC5 DUP2 DUP5 PUSH2 0xD75 JUMP JUMPDEST SWAP1 POP SWAP3 SWAP2 POP POP JUMP JUMPDEST PUSH0 PUSH1 0x20 DUP3 ADD SWAP1 POP PUSH2 0xDE0 PUSH0 DUP4 ADD DUP5 PUSH2 0xCEF JUMP JUMPDEST SWAP3 SWAP2 POP POP JUMP JUMPDEST PUSH32 0x4F6E6C7920746865206F776E65722063616E20706572666F726D207468697320 PUSH0 DUP3 ADD MSTORE PUSH32 0x616374696F6E0000000000000000000000000000000000000000000000000000 PUSH1 0x20 DUP3 ADD MSTORE POP JUMP JUMPDEST PUSH0 PUSH2 0xE40 PUSH1 0x26 DUP4 PUSH2 0xD57 JUMP JUMPDEST SWAP2 POP PUSH2 0xE4B DUP3 PUSH2 0xDE6 JUMP JUMPDEST PUSH1 0x40 DUP3 ADD SWAP1 POP SWAP2 SWAP1 POP JUMP JUMPDEST PUSH0 PUSH1 0x20 DUP3 ADD SWAP1 POP DUP2 DUP2 SUB PUSH0 DUP4 ADD MSTORE PUSH2 0xE6D DUP2 PUSH2 0xE34 JUMP JUMPDEST SWAP1 POP SWAP2 SWAP1 POP JUMP JUMPDEST PUSH32 0x4E6F7420616E20617574686F72697A6564206973737565720000000000000000 PUSH0 DUP3 ADD MSTORE POP JUMP JUMPDEST PUSH0 PUSH2 0xEA8 PUSH1 0x18 DUP4 PUSH2 0xD57 JUMP JUMPDEST SWAP2 POP PUSH2 0xEB3 DUP3 PUSH2 0xE74 JUMP JUMPDEST PUSH1 0x20 DUP3 ADD SWAP1 POP SWAP2 SWAP1 POP JUMP JUMPDEST PUSH0 PUSH1 0x20 DUP3 ADD SWAP1 POP DUP2 DUP2 SUB PUSH0 DUP4 ADD MSTORE PUSH2 0xED5 DUP2 PUSH2 0xE9C JUMP JUMPDEST SWAP1 POP SWAP2 SWAP1 POP JUMP JUMPDEST PUSH0 DUP2 SWAP1 POP SWAP3 SWAP2 POP POP JUMP JUMPDEST PUSH0 PUSH2 0xEF0 DUP3 PUSH2 0xD4D JUMP JUMPDEST PUSH2 0xEFA DUP2 DUP6 PUSH2 0xEDC JUMP JUMPDEST SWAP4 POP PUSH2 0xF0A DUP2 DUP6 PUSH1 0x20 DUP7 ADD PUSH2 0xD67 JUMP JUMPDEST DUP1 DUP5 ADD SWAP2 POP POP SWAP3 SWAP2 POP POP JUMP JUMPDEST PUSH0 DUP2 SWAP1 POP SWAP2 SWAP1 POP JUMP JUMPDEST PUSH2 0xF30 PUSH2 0xF2B DUP3 PUSH2 0xAFF JUMP JUMPDEST PUSH2 0xF16 JUMP JUMPDEST DUP3 MSTORE POP POP JUMP JUMPDEST PUSH0 PUSH2 0xF41 DUP3 DUP11 PUSH2 0xEE6 JUMP JUMPDEST SWAP2 POP PUSH2 0xF4D DUP3 DUP10 PUSH2 0xEE6 JUMP JUMPDEST SWAP2 POP PUSH2 0xF59 DUP3 DUP9 PUSH2 0xEE6 JUMP JUMPDEST SWAP2 POP PUSH2 0xF65 DUP3 DUP8 PUSH2 0xEE6 JUMP JUMPDEST SWAP2 POP PUSH2 0xF71 DUP3 DUP7 PUSH2 0xEE6 JUMP JUMPDEST SWAP2 POP PUSH2 0xF7D DUP3 DUP6 PUSH2 0xF1F JUMP JUMPDEST PUSH1 0x20 DUP3 ADD SWAP2 POP PUSH2 0xF8D DUP3 DUP5 PUSH2 0xEE6 JUMP JUMPDEST SWAP2 POP DUP2 SWAP1 POP SWAP9 SWAP8 POP POP POP POP POP POP POP POP JUMP JUMPDEST PUSH32 0x436572746966696361746520646F6573206E6F742065786973742E0000000000 PUSH0 DUP3 ADD MSTORE POP JUMP JUMPDEST PUSH0 PUSH2 0xFD2 PUSH1 0x1B DUP4 PUSH2 0xD57 JUMP JUMPDEST SWAP2 POP PUSH2 0xFDD DUP3 PUSH2 0xF9E JUMP JUMPDEST PUSH1 0x20 DUP3 ADD SWAP1 POP SWAP2 SWAP1 POP JUMP JUMPDEST PUSH0 PUSH1 0x20 DUP3 ADD SWAP1 POP DUP2 DUP2 SUB PUSH0 DUP4 ADD MSTORE PUSH2 0xFFF DUP2 PUSH2 0xFC6 JUMP JUMPDEST SWAP1 POP SWAP2 SWAP1 POP JUMP JUMPDEST PUSH32 0x436572746966696361746520616C7265616479207265766F6B65642E00000000 PUSH0 DUP3 ADD MSTORE POP JUMP JUMPDEST PUSH0 PUSH2 0x103A PUSH1 0x1C DUP4 PUSH2 0xD57 JUMP JUMPDEST SWAP2 POP PUSH2 0x1045 DUP3 PUSH2 0x1006 JUMP JUMPDEST PUSH1 0x20 DUP3 ADD SWAP1 POP SWAP2 SWAP1 POP JUMP JUMPDEST PUSH0 PUSH1 0x20 DUP3 ADD SWAP1 POP DUP2 DUP2 SUB PUSH0 DUP4 ADD MSTORE PUSH2 0x1067 DUP2 PUSH2 0x102E JUMP JUMPDEST SWAP1 POP SWAP2 SWAP1 POP JUMP JUMPDEST PUSH32 0x436572746966696361746520616C7265616479206578697374732E0000000000 PUSH0 DUP3 ADD MSTORE POP JUMP JUMPDEST PUSH0 PUSH2 0x10A2 PUSH1 0x1B DUP4 PUSH2 0xD57 JUMP JUMPDEST SWAP2 POP PUSH2 0x10AD DUP3 PUSH2 0x106E JUMP JUMPDEST PUSH1 0x20 DUP3 ADD SWAP1 POP SWAP2 SWAP1 POP JUMP JUMPDEST PUSH0 PUSH1 0x20 DUP3 ADD SWAP1 POP DUP2 DUP2 SUB PUSH0 DUP4 ADD MSTORE PUSH2 0x10CF DUP2 PUSH2 0x1096 JUMP JUMPDEST SWAP1 POP SWAP2 SWAP1 POP JUMP INVALID LOG2 PUSH5 0x6970667358 0x22 SLT KECCAK256 BLOBHASH 0xAA INVALID GAS LOG4 PUSH31 0xCBB560E5FB9DF9ECD81A75584E34ACCB8BC5D934219001FBAE6264736F6C63 NUMBER STOP ADDMOD BYTE STOP CALLER "
				},
				"gasEstimates": {
					"creation": {
						"codeDepositCost": "872800",
						"executionCost": "25172",
						"totalCost": "897972"
					},
					"external": {
						"addIssuer(address)": "28131",
						"authorizedIssuers(address)": "2899",
						"certificates(bytes32)": "infinite",
						"issueCertificate(string,string,string,string,string,uint256,string)": "infinite",
						"owner()": "2527",
						"removeIssuer(address)": "28152",
						"revokeCertificate(string,string,string,string,string,uint256,string)": "infinite",
						"verifyCertificate(string,string,string,string,string,uint256,string)": "infinite"
					}
				},
				"methodIdentifiers": {
					"addIssuer(address)": "20694db0",
					"authorizedIssuers(address)": "f731fa0f",
					"certificates(bytes32)": "742f0688",
					"issueCertificate(string,string,string,string,string,uint256,string)": "73113353",
					"owner()": "8da5cb5b",
					"removeIssuer(address)": "47bc7093",
					"revokeCertificate(string,string,string,string,string,uint256,string)": "678167d4",
					"verifyCertificate(string,string,string,string,string,uint256,string)": "8fc5bb9a"
				}
			},
			"storageLayout": {
				"storage": [
					{
						"astId": 8,
						"contract": "certificate.sol:CertificateRegistry",
						"label": "owner",
						"offset": 0,
						"slot": "0",
						"type": "t_address"
					},
					{
						"astId": 12,
						"contract": "certificate.sol:CertificateRegistry",
						"label": "authorizedIssuers",
						"offset": 0,
						"slot": "1",
						"type": "t_mapping(t_address,t_bool)"
					},
					{
						"astId": 17,
						"contract": "certificate.sol:CertificateRegistry",
						"label": "certificates",
						"offset": 0,
						"slot": "2",
						"type": "t_mapping(t_bytes32,t_struct(Certificate)6_storage)"
					}
				],
				"types": {
					"t_address": {
						"encoding": "inplace",
						"label": "address",
						"numberOfBytes": "20"
					},
					"t_bool": {
						"encoding": "inplace",
						"label": "bool",
						"numberOfBytes": "1"
					},
					"t_bytes32": {
						"encoding": "inplace",
						"label": "bytes32",
						"numberOfBytes": "32"
					},
					"t_mapping(t_address,t_bool)": {
						"encoding": "mapping",
						"key": "t_address",
						"label": "mapping(address => bool)",
						"numberOfBytes": "32",
						"value": "t_bool"
					},
					"t_mapping(t_bytes32,t_struct(Certificate)6_storage)": {
						"encoding": "mapping",
						"key": "t_bytes32",
						"label": "mapping(bytes32 => struct CertificateRegistry.Certificate)",
						"numberOfBytes": "32",
						"value": "t_struct(Certificate)6_storage"
					},
					"t_struct(Certificate)6_storage": {
						"encoding": "inplace",
						"label": "struct CertificateRegistry.Certificate",
						"members": [
							{
								"astId": 3,
								"contract": "certificate.sol:CertificateRegistry",
								"label": "hash",
								"offset": 0,
								"slot": "0",
								"type": "t_bytes32"
							},
							{
								"astId": 5,
								"contract": "certificate.sol:CertificateRegistry",
								"label": "isRevoked",
								"offset": 0,
								"slot": "1",
								"type": "t_bool"
							}
						],
						"numberOfBytes": "64"
					}
				}
			},
			"userdoc": {
				"kind": "user",
				"methods": {},
				"version": 1
			}
		}
	}
}